{
	"contracts/FirstContract.sol": {
		"MyFirstContract": {
			"abi": [
				{
					"inputs": [
						{
							"internalType": "string",
							"name": "_name",
							"type": "string"
						},
						{
							"internalType": "uint256",
							"name": "_mobNum",
							"type": "uint256"
						}
					],
					"name": "addMobileNumber",
					"outputs": [],
					"stateMutability": "nonpayable",
					"type": "function"
				},
				{
					"inputs": [
						{
							"internalType": "uint256",
							"name": "_num",
							"type": "uint256"
						},
						{
							"internalType": "uint256",
							"name": "_num1",
							"type": "uint256"
						}
					],
					"name": "addNumbers",
					"outputs": [],
					"stateMutability": "nonpayable",
					"type": "function"
				},
				{
					"inputs": [
						{
							"internalType": "uint256",
							"name": "_num",
							"type": "uint256"
						}
					],
					"name": "changeNumber",
					"outputs": [],
					"stateMutability": "nonpayable",
					"type": "function"
				},
				{
					"inputs": [],
					"name": "getAllNames",
					"outputs": [
						{
							"internalType": "string",
							"name": "",
							"type": "string"
						}
					],
					"stateMutability": "view",
					"type": "function"
				},
				{
					"inputs": [],
					"name": "getAmmountNames",
					"outputs": [
						{
							"internalType": "uint256",
							"name": "",
							"type": "uint256"
						}
					],
					"stateMutability": "view",
					"type": "function"
				},
				{
					"inputs": [
						{
							"internalType": "string",
							"name": "_name",
							"type": "string"
						}
					],
					"name": "getMobileNumber",
					"outputs": [
						{
							"internalType": "uint256",
							"name": "",
							"type": "uint256"
						}
					],
					"stateMutability": "view",
					"type": "function"
				},
				{
					"inputs": [
						{
							"internalType": "uint256",
							"name": "_id",
							"type": "uint256"
						}
					],
					"name": "getName",
					"outputs": [
						{
							"internalType": "string",
							"name": "",
							"type": "string"
						}
					],
					"stateMutability": "view",
					"type": "function"
				},
				{
					"inputs": [],
					"name": "getNumber",
					"outputs": [
						{
							"internalType": "uint256",
							"name": "",
							"type": "uint256"
						}
					],
					"stateMutability": "view",
					"type": "function"
				},
				{
					"inputs": [
						{
							"internalType": "uint256",
							"name": "_num",
							"type": "uint256"
						}
					],
					"name": "getNumberMultiplied",
					"outputs": [
						{
							"internalType": "uint256",
							"name": "",
							"type": "uint256"
						}
					],
					"stateMutability": "view",
					"type": "function"
				},
				{
					"inputs": [
						{
							"internalType": "string",
							"name": "",
							"type": "string"
						}
					],
					"name": "mobileNum",
					"outputs": [
						{
							"internalType": "uint256",
							"name": "",
							"type": "uint256"
						}
					],
					"stateMutability": "view",
					"type": "function"
				},
				{
					"inputs": [
						{
							"internalType": "uint256",
							"name": "",
							"type": "uint256"
						}
					],
					"name": "names",
					"outputs": [
						{
							"internalType": "string",
							"name": "",
							"type": "string"
						}
					],
					"stateMutability": "view",
					"type": "function"
				},
				{
					"inputs": [],
					"name": "number",
					"outputs": [
						{
							"internalType": "uint256",
							"name": "",
							"type": "uint256"
						}
					],
					"stateMutability": "view",
					"type": "function"
				},
				{
					"inputs": [
						{
							"internalType": "string",
							"name": "_name",
							"type": "string"
						}
					],
					"name": "push",
					"outputs": [],
					"stateMutability": "nonpayable",
					"type": "function"
				}
			],
			"devdoc": {
				"methods": {}
			},
			"evm": {
				"assembly": "    /* \"contracts/FirstContract.sol\":101:1541  contract MyFirstContract {\r... */\n  mstore(0x40, 0x80)\n    /* \"contracts/FirstContract.sol\":160:161  0 */\n  0x00\n    /* \"contracts/FirstContract.sol\":136:161  uint256 public number = 0 */\n  dup1\n  sstore\n    /* \"contracts/FirstContract.sol\":101:1541  contract MyFirstContract {\r... */\n  callvalue\n    /* \"--CODEGEN--\":5:14   */\n  dup1\n    /* \"--CODEGEN--\":2:4   */\n  iszero\n  tag_1\n  jumpi\n    /* \"--CODEGEN--\":27:28   */\n  0x00\n    /* \"--CODEGEN--\":24:25   */\n  dup1\n    /* \"--CODEGEN--\":17:29   */\n  revert\n    /* \"--CODEGEN--\":2:4   */\ntag_1:\n    /* \"contracts/FirstContract.sol\":101:1541  contract MyFirstContract {\r... */\n  pop\n  dataSize(sub_0)\n  dup1\n  dataOffset(sub_0)\n  0x00\n  codecopy\n  0x00\n  return\nstop\n\nsub_0: assembly {\n        /* \"contracts/FirstContract.sol\":101:1541  contract MyFirstContract {\r... */\n      mstore(0x40, 0x80)\n      callvalue\n        /* \"--CODEGEN--\":5:14   */\n      dup1\n        /* \"--CODEGEN--\":2:4   */\n      iszero\n      tag_1\n      jumpi\n        /* \"--CODEGEN--\":27:28   */\n      0x00\n        /* \"--CODEGEN--\":24:25   */\n      dup1\n        /* \"--CODEGEN--\":17:29   */\n      revert\n        /* \"--CODEGEN--\":2:4   */\n    tag_1:\n        /* \"contracts/FirstContract.sol\":101:1541  contract MyFirstContract {\r... */\n      pop\n      jumpi(tag_2, lt(calldatasize, 0x04))\n      shr(0xe0, calldataload(0x00))\n      dup1\n      0x6b8ff574\n      gt\n      tag_16\n      jumpi\n      dup1\n      0x96fa3a81\n      gt\n      tag_17\n      jumpi\n      dup1\n      0x96fa3a81\n      eq\n      tag_12\n      jumpi\n      dup1\n      0xef9fc50b\n      eq\n      tag_13\n      jumpi\n      dup1\n      0xf2c9ecd8\n      eq\n      tag_14\n      jumpi\n      dup1\n      0xfb825e5f\n      eq\n      tag_15\n      jumpi\n      jump(tag_2)\n    tag_17:\n      dup1\n      0x6b8ff574\n      eq\n      tag_9\n      jumpi\n      dup1\n      0x7ba1eab3\n      eq\n      tag_10\n      jumpi\n      dup1\n      0x8381f58a\n      eq\n      tag_11\n      jumpi\n      jump(tag_2)\n    tag_16:\n      dup1\n      0x07391dd6\n      eq\n      tag_3\n      jumpi\n      dup1\n      0x08ccbc88\n      eq\n      tag_4\n      jumpi\n      dup1\n      0x14b3ee68\n      eq\n      tag_5\n      jumpi\n      dup1\n      0x16039540\n      eq\n      tag_6\n      jumpi\n      dup1\n      0x4622ab03\n      eq\n      tag_7\n      jumpi\n      dup1\n      0x4f3d057a\n      eq\n      tag_8\n      jumpi\n    tag_2:\n        /* \"--CODEGEN--\":12:13   */\n      0x00\n        /* \"--CODEGEN--\":9:10   */\n      dup1\n        /* \"--CODEGEN--\":2:14   */\n      revert\n        /* \"contracts/FirstContract.sol\":248:324  function changeNumber(uint256 _num) public {\r... */\n    tag_3:\n      tag_18\n      0x04\n      dup1\n      calldatasize\n      sub\n      dup2\n      add\n      swap1\n      tag_19\n      swap2\n      swap1\n      jump(tag_20)\n    tag_19:\n      tag_21\n      jump\t// in\n    tag_18:\n      stop\n        /* \"contracts/FirstContract.sol\":1068:1159  function getAmmountNames() public view returns (uint){\r... */\n    tag_4:\n      tag_22\n      tag_23\n      jump\t// in\n    tag_22:\n      mload(0x40)\n      tag_24\n      swap2\n      swap1\n      jump(tag_25)\n    tag_24:\n      mload(0x40)\n      dup1\n      swap2\n      sub\n      swap1\n      return\n        /* \"contracts/FirstContract.sol\":946:1060  function getMobileNumber(string memory _name) public view returns (uint){\r... */\n    tag_5:\n      tag_26\n      0x04\n      dup1\n      calldatasize\n      sub\n      dup2\n      add\n      swap1\n      tag_27\n      swap2\n      swap1\n      jump(tag_28)\n    tag_27:\n      tag_29\n      jump\t// in\n    tag_26:\n      mload(0x40)\n      tag_30\n      swap2\n      swap1\n      jump(tag_25)\n    tag_30:\n      mload(0x40)\n      dup1\n      swap2\n      sub\n      swap1\n      return\n        /* \"contracts/FirstContract.sol\":426:531  function getNumberMultiplied(uint _num) public view returns (uint){\r... */\n    tag_6:\n      tag_31\n      0x04\n      dup1\n      calldatasize\n      sub\n      dup2\n      add\n      swap1\n      tag_32\n      swap2\n      swap1\n      jump(tag_20)\n    tag_32:\n      tag_33\n      jump\t// in\n    tag_31:\n      mload(0x40)\n      tag_34\n      swap2\n      swap1\n      jump(tag_25)\n    tag_34:\n      mload(0x40)\n      dup1\n      swap2\n      sub\n      swap1\n      return\n        /* \"contracts/FirstContract.sol\":168:189  string[] public names */\n    tag_7:\n      tag_35\n      0x04\n      dup1\n      calldatasize\n      sub\n      dup2\n      add\n      swap1\n      tag_36\n      swap2\n      swap1\n      jump(tag_20)\n    tag_36:\n      tag_37\n      jump\t// in\n    tag_35:\n      mload(0x40)\n      tag_38\n      swap2\n      swap1\n      jump(tag_39)\n    tag_38:\n      mload(0x40)\n      dup1\n      swap2\n      sub\n      swap1\n      return\n        /* \"contracts/FirstContract.sol\":636:713  function push(string memory _name) public{\r... */\n    tag_8:\n      tag_40\n      0x04\n      dup1\n      calldatasize\n      sub\n      dup2\n      add\n      swap1\n      tag_41\n      swap2\n      swap1\n      jump(tag_28)\n    tag_41:\n      tag_42\n      jump\t// in\n    tag_40:\n      stop\n        /* \"contracts/FirstContract.sol\":721:819  function getName(uint _id) public view returns (string memory){\r... */\n    tag_9:\n      tag_43\n      0x04\n      dup1\n      calldatasize\n      sub\n      dup2\n      add\n      swap1\n      tag_44\n      swap2\n      swap1\n      jump(tag_20)\n    tag_44:\n      tag_45\n      jump\t// in\n    tag_43:\n      mload(0x40)\n      tag_46\n      swap2\n      swap1\n      jump(tag_39)\n    tag_46:\n      mload(0x40)\n      dup1\n      swap2\n      sub\n      swap1\n      return\n        /* \"contracts/FirstContract.sol\":827:938  function addMobileNumber(string memory _name, uint _mobNum) public{\r... */\n    tag_10:\n      tag_47\n      0x04\n      dup1\n      calldatasize\n      sub\n      dup2\n      add\n      swap1\n      tag_48\n      swap2\n      swap1\n      jump(tag_49)\n    tag_48:\n      tag_50\n      jump\t// in\n    tag_47:\n      stop\n        /* \"contracts/FirstContract.sol\":136:161  uint256 public number = 0 */\n    tag_11:\n      tag_51\n      tag_52\n      jump\t// in\n    tag_51:\n      mload(0x40)\n      tag_53\n      swap2\n      swap1\n      jump(tag_25)\n    tag_53:\n      mload(0x40)\n      dup1\n      swap2\n      sub\n      swap1\n      return\n        /* \"contracts/FirstContract.sol\":196:236  mapping(string => uint) public mobileNum */\n    tag_12:\n      tag_54\n      0x04\n      dup1\n      calldatasize\n      sub\n      dup2\n      add\n      swap1\n      tag_55\n      swap2\n      swap1\n      jump(tag_28)\n    tag_55:\n      tag_56\n      jump\t// in\n    tag_54:\n      mload(0x40)\n      tag_57\n      swap2\n      swap1\n      jump(tag_25)\n    tag_57:\n      mload(0x40)\n      dup1\n      swap2\n      sub\n      swap1\n      return\n        /* \"contracts/FirstContract.sol\":539:628  function addNumbers(uint _num, uint _num1) public{\r... */\n    tag_13:\n      tag_58\n      0x04\n      dup1\n      calldatasize\n      sub\n      dup2\n      add\n      swap1\n      tag_59\n      swap2\n      swap1\n      jump(tag_60)\n    tag_59:\n      tag_61\n      jump\t// in\n    tag_58:\n      stop\n        /* \"contracts/FirstContract.sol\":336:418  function getNumber() public view returns (uint256){\r... */\n    tag_14:\n      tag_62\n      tag_63\n      jump\t// in\n    tag_62:\n      mload(0x40)\n      tag_64\n      swap2\n      swap1\n      jump(tag_25)\n    tag_64:\n      mload(0x40)\n      dup1\n      swap2\n      sub\n      swap1\n      return\n        /* \"contracts/FirstContract.sol\":1167:1538  function getAllNames() public view returns (string memory){\r... */\n    tag_15:\n      tag_65\n      tag_66\n      jump\t// in\n    tag_65:\n      mload(0x40)\n      tag_67\n      swap2\n      swap1\n      jump(tag_39)\n    tag_67:\n      mload(0x40)\n      dup1\n      swap2\n      sub\n      swap1\n      return\n        /* \"contracts/FirstContract.sol\":248:324  function changeNumber(uint256 _num) public {\r... */\n    tag_21:\n        /* \"contracts/FirstContract.sol\":312:316  _num */\n      dup1\n        /* \"contracts/FirstContract.sol\":302:308  number */\n      0x00\n      dup1\n        /* \"contracts/FirstContract.sol\":302:316  number += _num */\n      dup3\n      dup3\n      sload\n      add\n      swap3\n      pop\n      pop\n      dup2\n      swap1\n      sstore\n      pop\n        /* \"contracts/FirstContract.sol\":248:324  function changeNumber(uint256 _num) public {\r... */\n      pop\n      jump\t// out\n        /* \"contracts/FirstContract.sol\":1068:1159  function getAmmountNames() public view returns (uint){\r... */\n    tag_23:\n        /* \"contracts/FirstContract.sol\":1116:1120  uint */\n      0x00\n        /* \"contracts/FirstContract.sol\":1139:1144  names */\n      0x01\n        /* \"contracts/FirstContract.sol\":1139:1151  names.length */\n      dup1\n      sload\n      swap1\n      pop\n        /* \"contracts/FirstContract.sol\":1132:1151  return names.length */\n      swap1\n      pop\n        /* \"contracts/FirstContract.sol\":1068:1159  function getAmmountNames() public view returns (uint){\r... */\n      swap1\n      jump\t// out\n        /* \"contracts/FirstContract.sol\":946:1060  function getMobileNumber(string memory _name) public view returns (uint){\r... */\n    tag_29:\n        /* \"contracts/FirstContract.sol\":1013:1017  uint */\n      0x00\n        /* \"contracts/FirstContract.sol\":1036:1045  mobileNum */\n      0x02\n        /* \"contracts/FirstContract.sol\":1046:1051  _name */\n      dup3\n        /* \"contracts/FirstContract.sol\":1036:1052  mobileNum[_name] */\n      mload(0x40)\n      tag_71\n      swap2\n      swap1\n      jump(tag_72)\n    tag_71:\n      swap1\n      dup2\n      mstore\n      0x20\n      add\n      mload(0x40)\n      dup1\n      swap2\n      sub\n      swap1\n      keccak256\n      sload\n        /* \"contracts/FirstContract.sol\":1029:1052  return mobileNum[_name] */\n      swap1\n      pop\n        /* \"contracts/FirstContract.sol\":946:1060  function getMobileNumber(string memory _name) public view returns (uint){\r... */\n      swap2\n      swap1\n      pop\n      jump\t// out\n        /* \"contracts/FirstContract.sol\":426:531  function getNumberMultiplied(uint _num) public view returns (uint){\r... */\n    tag_33:\n        /* \"contracts/FirstContract.sol\":487:491  uint */\n      0x00\n        /* \"contracts/FirstContract.sol\":519:523  _num */\n      dup2\n        /* \"contracts/FirstContract.sol\":510:516  number */\n      sload(0x00)\n        /* \"contracts/FirstContract.sol\":510:523  number * _num */\n      mul\n        /* \"contracts/FirstContract.sol\":503:523  return number * _num */\n      swap1\n      pop\n        /* \"contracts/FirstContract.sol\":426:531  function getNumberMultiplied(uint _num) public view returns (uint){\r... */\n      swap2\n      swap1\n      pop\n      jump\t// out\n        /* \"contracts/FirstContract.sol\":168:189  string[] public names */\n    tag_37:\n      0x01\n      dup2\n      dup2\n      sload\n      dup2\n      lt\n      tag_74\n      jumpi\n      invalid\n    tag_74:\n      swap1\n      0x00\n      mstore\n      keccak256(0x00, 0x20)\n      add\n      0x00\n      swap2\n      pop\n      swap1\n      pop\n      dup1\n      sload\n      0x01\n      dup2\n      0x01\n      and\n      iszero\n      0x0100\n      mul\n      sub\n      and\n      0x02\n      swap1\n      div\n      dup1\n      0x1f\n      add\n      0x20\n      dup1\n      swap2\n      div\n      mul\n      0x20\n      add\n      mload(0x40)\n      swap1\n      dup2\n      add\n      0x40\n      mstore\n      dup1\n      swap3\n      swap2\n      swap1\n      dup2\n      dup2\n      mstore\n      0x20\n      add\n      dup3\n      dup1\n      sload\n      0x01\n      dup2\n      0x01\n      and\n      iszero\n      0x0100\n      mul\n      sub\n      and\n      0x02\n      swap1\n      div\n      dup1\n      iszero\n      tag_76\n      jumpi\n      dup1\n      0x1f\n      lt\n      tag_77\n      jumpi\n      0x0100\n      dup1\n      dup4\n      sload\n      div\n      mul\n      dup4\n      mstore\n      swap2\n      0x20\n      add\n      swap2\n      jump(tag_76)\n    tag_77:\n      dup3\n      add\n      swap2\n      swap1\n      0x00\n      mstore\n      keccak256(0x00, 0x20)\n      swap1\n    tag_78:\n      dup2\n      sload\n      dup2\n      mstore\n      swap1\n      0x01\n      add\n      swap1\n      0x20\n      add\n      dup1\n      dup4\n      gt\n      tag_78\n      jumpi\n      dup3\n      swap1\n      sub\n      0x1f\n      and\n      dup3\n      add\n      swap2\n    tag_76:\n      pop\n      pop\n      pop\n      pop\n      pop\n      dup2\n      jump\t// out\n        /* \"contracts/FirstContract.sol\":636:713  function push(string memory _name) public{\r... */\n    tag_42:\n        /* \"contracts/FirstContract.sol\":688:693  names */\n      0x01\n        /* \"contracts/FirstContract.sol\":699:704  _name */\n      dup2\n        /* \"contracts/FirstContract.sol\":688:705  names.push(_name) */\n      swap1\n      dup1\n        /* \"--CODEGEN--\":39:40   */\n      0x01\n        /* \"--CODEGEN--\":33:36   */\n      dup2\n        /* \"--CODEGEN--\":27:37   */\n      sload\n        /* \"--CODEGEN--\":23:41   */\n      add\n        /* \"--CODEGEN--\":57:67   */\n      dup1\n        /* \"--CODEGEN--\":52:55   */\n      dup3\n        /* \"--CODEGEN--\":45:68   */\n      sstore\n        /* \"--CODEGEN--\":79:89   */\n      dup1\n        /* \"--CODEGEN--\":72:89   */\n      swap2\n      pop\n        /* \"--CODEGEN--\":0:93   */\n      pop\n        /* \"contracts/FirstContract.sol\":688:705  names.push(_name) */\n      0x01\n      swap1\n      sub\n      swap1\n      0x00\n      mstore\n      keccak256(0x00, 0x20)\n      add\n      0x00\n      swap1\n      swap2\n      swap1\n      swap2\n      swap1\n      swap2\n      pop\n      swap1\n      dup1\n      mload\n      swap1\n      0x20\n      add\n      swap1\n      tag_81\n      swap3\n      swap2\n      swap1\n      tag_82\n      jump\t// in\n    tag_81:\n      pop\n        /* \"contracts/FirstContract.sol\":636:713  function push(string memory _name) public{\r... */\n      pop\n      jump\t// out\n        /* \"contracts/FirstContract.sol\":721:819  function getName(uint _id) public view returns (string memory){\r... */\n    tag_45:\n        /* \"contracts/FirstContract.sol\":769:782  string memory */\n      0x60\n        /* \"contracts/FirstContract.sol\":801:806  names */\n      0x01\n        /* \"contracts/FirstContract.sol\":807:810  _id */\n      dup3\n        /* \"contracts/FirstContract.sol\":801:811  names[_id] */\n      dup2\n      sload\n      dup2\n      lt\n      tag_84\n      jumpi\n      invalid\n    tag_84:\n      swap1\n      0x00\n      mstore\n      keccak256(0x00, 0x20)\n      add\n        /* \"contracts/FirstContract.sol\":794:811  return names[_id] */\n      dup1\n      sload\n      0x01\n      dup2\n      0x01\n      and\n      iszero\n      0x0100\n      mul\n      sub\n      and\n      0x02\n      swap1\n      div\n      dup1\n      0x1f\n      add\n      0x20\n      dup1\n      swap2\n      div\n      mul\n      0x20\n      add\n      mload(0x40)\n      swap1\n      dup2\n      add\n      0x40\n      mstore\n      dup1\n      swap3\n      swap2\n      swap1\n      dup2\n      dup2\n      mstore\n      0x20\n      add\n      dup3\n      dup1\n      sload\n      0x01\n      dup2\n      0x01\n      and\n      iszero\n      0x0100\n      mul\n      sub\n      and\n      0x02\n      swap1\n      div\n      dup1\n      iszero\n      tag_86\n      jumpi\n      dup1\n      0x1f\n      lt\n      tag_87\n      jumpi\n      0x0100\n      dup1\n      dup4\n      sload\n      div\n      mul\n      dup4\n      mstore\n      swap2\n      0x20\n      add\n      swap2\n      jump(tag_86)\n    tag_87:\n      dup3\n      add\n      swap2\n      swap1\n      0x00\n      mstore\n      keccak256(0x00, 0x20)\n      swap1\n    tag_88:\n      dup2\n      sload\n      dup2\n      mstore\n      swap1\n      0x01\n      add\n      swap1\n      0x20\n      add\n      dup1\n      dup4\n      gt\n      tag_88\n      jumpi\n      dup3\n      swap1\n      sub\n      0x1f\n      and\n      dup3\n      add\n      swap2\n    tag_86:\n      pop\n      pop\n      pop\n      pop\n      pop\n      swap1\n      pop\n        /* \"contracts/FirstContract.sol\":721:819  function getName(uint _id) public view returns (string memory){\r... */\n      swap2\n      swap1\n      pop\n      jump\t// out\n        /* \"contracts/FirstContract.sol\":827:938  function addMobileNumber(string memory _name, uint _mobNum) public{\r... */\n    tag_50:\n        /* \"contracts/FirstContract.sol\":923:930  _mobNum */\n      dup1\n        /* \"contracts/FirstContract.sol\":904:913  mobileNum */\n      0x02\n        /* \"contracts/FirstContract.sol\":914:919  _name */\n      dup4\n        /* \"contracts/FirstContract.sol\":904:920  mobileNum[_name] */\n      mload(0x40)\n      tag_90\n      swap2\n      swap1\n      jump(tag_72)\n    tag_90:\n      swap1\n      dup2\n      mstore\n      0x20\n      add\n      mload(0x40)\n      dup1\n      swap2\n      sub\n      swap1\n      keccak256\n        /* \"contracts/FirstContract.sol\":904:930  mobileNum[_name] = _mobNum */\n      dup2\n      swap1\n      sstore\n      pop\n        /* \"contracts/FirstContract.sol\":827:938  function addMobileNumber(string memory _name, uint _mobNum) public{\r... */\n      pop\n      pop\n      jump\t// out\n        /* \"contracts/FirstContract.sol\":136:161  uint256 public number = 0 */\n    tag_52:\n      sload(0x00)\n      dup2\n      jump\t// out\n        /* \"contracts/FirstContract.sol\":196:236  mapping(string => uint) public mobileNum */\n    tag_56:\n      0x02\n      dup2\n        /* \"--CODEGEN--\":28:35   */\n      dup1\n        /* \"--CODEGEN--\":22:36   */\n      mload\n        /* \"--CODEGEN--\":169:173   */\n      0x20\n        /* \"--CODEGEN--\":160:167   */\n      dup2\n        /* \"--CODEGEN--\":156:174   */\n      add\n        /* \"--CODEGEN--\":147:154   */\n      dup3\n        /* \"--CODEGEN--\":143:175   */\n      add\n        /* \"--CODEGEN--\":204:217   */\n      dup1\n        /* \"--CODEGEN--\":198:218   */\n      mload\n        /* \"--CODEGEN--\":246:254   */\n      dup5\n        /* \"--CODEGEN--\":231:244   */\n      dup3\n        /* \"--CODEGEN--\":224:255   */\n      mstore\n        /* \"--CODEGEN--\":316:320   */\n      0x20\n        /* \"--CODEGEN--\":307:314   */\n      dup4\n        /* \"--CODEGEN--\":303:321   */\n      add\n        /* \"--CODEGEN--\":296:300   */\n      0x20\n        /* \"--CODEGEN--\":287:294   */\n      dup6\n        /* \"--CODEGEN--\":283:301   */\n      add\n        /* \"--CODEGEN--\":273:322   */\n      keccak256\n        /* \"--CODEGEN--\":350:359   */\n      dup2\n        /* \"--CODEGEN--\":335:348   */\n      dup4\n        /* \"--CODEGEN--\":328:360   */\n      mstore\n        /* \"--CODEGEN--\":378:382   */\n      dup1\n        /* \"--CODEGEN--\":366:382   */\n      swap6\n      pop\n        /* \"--CODEGEN--\":0:388   */\n      pop\n      pop\n      pop\n      pop\n        /* \"contracts/FirstContract.sol\":196:236  mapping(string => uint) public mobileNum */\n      pop\n      0x00\n      swap2\n      pop\n      swap1\n      pop\n      sload\n      dup2\n      jump\t// out\n        /* \"contracts/FirstContract.sol\":539:628  function addNumbers(uint _num, uint _num1) public{\r... */\n    tag_61:\n        /* \"contracts/FirstContract.sol\":615:620  _num1 */\n      dup1\n        /* \"contracts/FirstContract.sol\":608:612  _num */\n      dup3\n        /* \"contracts/FirstContract.sol\":608:620  _num + _num1 */\n      add\n        /* \"contracts/FirstContract.sol\":599:605  number */\n      0x00\n        /* \"contracts/FirstContract.sol\":599:620  number = _num + _num1 */\n      dup2\n      swap1\n      sstore\n      pop\n        /* \"contracts/FirstContract.sol\":539:628  function addNumbers(uint _num, uint _num1) public{\r... */\n      pop\n      pop\n      jump\t// out\n        /* \"contracts/FirstContract.sol\":336:418  function getNumber() public view returns (uint256){\r... */\n    tag_63:\n        /* \"contracts/FirstContract.sol\":378:385  uint256 */\n      0x00\n        /* \"contracts/FirstContract.sol\":404:410  number */\n      dup1\n      sload\n        /* \"contracts/FirstContract.sol\":397:410  return number */\n      swap1\n      pop\n        /* \"contracts/FirstContract.sol\":336:418  function getNumber() public view returns (uint256){\r... */\n      swap1\n      jump\t// out\n        /* \"contracts/FirstContract.sol\":1167:1538  function getAllNames() public view returns (string memory){\r... */\n    tag_66:\n        /* \"contracts/FirstContract.sol\":1211:1224  string memory */\n      0x60\n        /* \"contracts/FirstContract.sol\":1236:1244  uint _id */\n      0x00\n        /* \"contracts/FirstContract.sol\":1247:1264  getAmmountNames() */\n      tag_94\n        /* \"contracts/FirstContract.sol\":1247:1262  getAmmountNames */\n      tag_23\n        /* \"contracts/FirstContract.sol\":1247:1264  getAmmountNames() */\n      jump\t// in\n    tag_94:\n        /* \"contracts/FirstContract.sol\":1236:1264  uint _id = getAmmountNames() */\n      swap1\n      pop\n        /* \"contracts/FirstContract.sol\":1275:1297  string memory allNames */\n      0x60\n        /* \"contracts/FirstContract.sol\":1275:1313  string memory allNames = \"Names are: \" */\n      mload(0x40)\n      dup1\n      0x40\n      add\n      0x40\n      mstore\n      dup1\n      0x0b\n      dup2\n      mstore\n      0x20\n      add\n      0x4e616d6573206172653a20000000000000000000000000000000000000000000\n      dup2\n      mstore\n      pop\n      swap1\n      pop\n        /* \"contracts/FirstContract.sol\":1359:1367  allNames */\n      dup1\n        /* \"contracts/FirstContract.sol\":1369:1381  getName(_id) */\n      tag_95\n        /* \"contracts/FirstContract.sol\":1377:1380  _id */\n      dup4\n        /* \"contracts/FirstContract.sol\":1369:1376  getName */\n      tag_45\n        /* \"contracts/FirstContract.sol\":1369:1381  getName(_id) */\n      jump\t// in\n    tag_95:\n        /* \"contracts/FirstContract.sol\":1342:1382  abi.encodePacked(allNames, getName(_id)) */\n      add(0x20, mload(0x40))\n      tag_96\n      swap3\n      swap2\n      swap1\n      jump(tag_97)\n    tag_96:\n      mload(0x40)\n        /* \"--CODEGEN--\":49:53   */\n      0x20\n        /* \"--CODEGEN--\":39:46   */\n      dup2\n        /* \"--CODEGEN--\":30:37   */\n      dup4\n        /* \"--CODEGEN--\":26:47   */\n      sub\n        /* \"--CODEGEN--\":22:54   */\n      sub\n        /* \"--CODEGEN--\":13:20   */\n      dup2\n        /* \"--CODEGEN--\":6:55   */\n      mstore\n        /* \"contracts/FirstContract.sol\":1342:1382  abi.encodePacked(allNames, getName(_id)) */\n      swap1\n      0x40\n      mstore\n        /* \"contracts/FirstContract.sol\":1324:1383  allNames = string(abi.encodePacked(allNames, getName(_id))) */\n      swap1\n      pop\n        /* \"contracts/FirstContract.sol\":1522:1530  allNames */\n      dup1\n        /* \"contracts/FirstContract.sol\":1515:1530  return allNames */\n      swap3\n      pop\n      pop\n      pop\n        /* \"contracts/FirstContract.sol\":1167:1538  function getAllNames() public view returns (string memory){\r... */\n      swap1\n      jump\t// out\n        /* \"contracts/FirstContract.sol\":101:1541  contract MyFirstContract {\r... */\n    tag_82:\n      dup3\n      dup1\n      sload\n      0x01\n      dup2\n      0x01\n      and\n      iszero\n      0x0100\n      mul\n      sub\n      and\n      0x02\n      swap1\n      div\n      swap1\n      0x00\n      mstore\n      keccak256(0x00, 0x20)\n      swap1\n      0x1f\n      add\n      0x20\n      swap1\n      div\n      dup2\n      add\n      swap3\n      dup3\n      0x1f\n      lt\n      tag_99\n      jumpi\n      dup1\n      mload\n      not(0xff)\n      and\n      dup4\n      dup1\n      add\n      or\n      dup6\n      sstore\n      jump(tag_98)\n    tag_99:\n      dup3\n      dup1\n      add\n      0x01\n      add\n      dup6\n      sstore\n      dup3\n      iszero\n      tag_98\n      jumpi\n      swap2\n      dup3\n      add\n    tag_100:\n      dup3\n      dup2\n      gt\n      iszero\n      tag_101\n      jumpi\n      dup3\n      mload\n      dup3\n      sstore\n      swap2\n      0x20\n      add\n      swap2\n      swap1\n      0x01\n      add\n      swap1\n      jump(tag_100)\n    tag_101:\n    tag_98:\n      pop\n      swap1\n      pop\n      tag_102\n      swap2\n      swap1\n      tag_103\n      jump\t// in\n    tag_102:\n      pop\n      swap1\n      jump\t// out\n    tag_103:\n      tag_104\n      swap2\n      swap1\n    tag_105:\n      dup1\n      dup3\n      gt\n      iszero\n      tag_106\n      jumpi\n      0x00\n      dup2\n      0x00\n      swap1\n      sstore\n      pop\n      0x01\n      add\n      jump(tag_105)\n    tag_106:\n      pop\n      swap1\n      jump\n    tag_104:\n      swap1\n      jump\t// out\n        /* \"--CODEGEN--\":6:448   */\n    tag_108:\n      0x00\n        /* \"--CODEGEN--\":108:111   */\n      dup3\n        /* \"--CODEGEN--\":101:105   */\n      0x1f\n        /* \"--CODEGEN--\":93:99   */\n      dup4\n        /* \"--CODEGEN--\":89:106   */\n      add\n        /* \"--CODEGEN--\":85:112   */\n      slt\n        /* \"--CODEGEN--\":75:77   */\n      tag_110\n      jumpi\n        /* \"--CODEGEN--\":126:127   */\n      0x00\n        /* \"--CODEGEN--\":123:124   */\n      dup1\n        /* \"--CODEGEN--\":116:128   */\n      revert\n        /* \"--CODEGEN--\":75:77   */\n    tag_110:\n        /* \"--CODEGEN--\":163:169   */\n      dup2\n        /* \"--CODEGEN--\":150:170   */\n      calldataload\n        /* \"--CODEGEN--\":185:250   */\n      tag_111\n        /* \"--CODEGEN--\":200:249   */\n      tag_112\n        /* \"--CODEGEN--\":242:248   */\n      dup3\n        /* \"--CODEGEN--\":200:249   */\n      jump(tag_113)\n    tag_112:\n        /* \"--CODEGEN--\":185:250   */\n      jump(tag_114)\n    tag_111:\n        /* \"--CODEGEN--\":176:250   */\n      swap2\n      pop\n        /* \"--CODEGEN--\":270:276   */\n      dup1\n        /* \"--CODEGEN--\":263:268   */\n      dup3\n        /* \"--CODEGEN--\":256:277   */\n      mstore\n        /* \"--CODEGEN--\":306:310   */\n      0x20\n        /* \"--CODEGEN--\":298:304   */\n      dup4\n        /* \"--CODEGEN--\":294:311   */\n      add\n        /* \"--CODEGEN--\":339:343   */\n      0x20\n        /* \"--CODEGEN--\":332:337   */\n      dup4\n        /* \"--CODEGEN--\":328:344   */\n      add\n        /* \"--CODEGEN--\":374:377   */\n      dup6\n        /* \"--CODEGEN--\":365:371   */\n      dup4\n        /* \"--CODEGEN--\":360:363   */\n      dup4\n        /* \"--CODEGEN--\":356:372   */\n      add\n        /* \"--CODEGEN--\":353:378   */\n      gt\n        /* \"--CODEGEN--\":350:352   */\n      iszero\n      tag_115\n      jumpi\n        /* \"--CODEGEN--\":391:392   */\n      0x00\n        /* \"--CODEGEN--\":388:389   */\n      dup1\n        /* \"--CODEGEN--\":381:393   */\n      revert\n        /* \"--CODEGEN--\":350:352   */\n    tag_115:\n        /* \"--CODEGEN--\":401:442   */\n      tag_116\n        /* \"--CODEGEN--\":435:441   */\n      dup4\n        /* \"--CODEGEN--\":430:433   */\n      dup3\n        /* \"--CODEGEN--\":425:428   */\n      dup5\n        /* \"--CODEGEN--\":401:442   */\n      jump(tag_117)\n    tag_116:\n        /* \"--CODEGEN--\":68:448   */\n      pop\n      pop\n      pop\n      swap3\n      swap2\n      pop\n      pop\n      jump\n        /* \"--CODEGEN--\":456:586   */\n    tag_118:\n      0x00\n        /* \"--CODEGEN--\":536:542   */\n      dup2\n        /* \"--CODEGEN--\":523:543   */\n      calldataload\n        /* \"--CODEGEN--\":514:543   */\n      swap1\n      pop\n        /* \"--CODEGEN--\":548:581   */\n      tag_120\n        /* \"--CODEGEN--\":575:580   */\n      dup2\n        /* \"--CODEGEN--\":548:581   */\n      jump(tag_121)\n    tag_120:\n        /* \"--CODEGEN--\":508:586   */\n      swap3\n      swap2\n      pop\n      pop\n      jump\n        /* \"--CODEGEN--\":593:940   */\n    tag_28:\n      0x00\n        /* \"--CODEGEN--\":707:709   */\n      0x20\n        /* \"--CODEGEN--\":695:704   */\n      dup3\n        /* \"--CODEGEN--\":686:693   */\n      dup5\n        /* \"--CODEGEN--\":682:705   */\n      sub\n        /* \"--CODEGEN--\":678:710   */\n      slt\n        /* \"--CODEGEN--\":675:677   */\n      iszero\n      tag_123\n      jumpi\n        /* \"--CODEGEN--\":723:724   */\n      0x00\n        /* \"--CODEGEN--\":720:721   */\n      dup1\n        /* \"--CODEGEN--\":713:725   */\n      revert\n        /* \"--CODEGEN--\":675:677   */\n    tag_123:\n        /* \"--CODEGEN--\":786:787   */\n      0x00\n        /* \"--CODEGEN--\":775:784   */\n      dup3\n        /* \"--CODEGEN--\":771:788   */\n      add\n        /* \"--CODEGEN--\":758:789   */\n      calldataload\n        /* \"--CODEGEN--\":809:827   */\n      0xffffffffffffffff\n        /* \"--CODEGEN--\":801:807   */\n      dup2\n        /* \"--CODEGEN--\":798:828   */\n      gt\n        /* \"--CODEGEN--\":795:797   */\n      iszero\n      tag_124\n      jumpi\n        /* \"--CODEGEN--\":841:842   */\n      0x00\n        /* \"--CODEGEN--\":838:839   */\n      dup1\n        /* \"--CODEGEN--\":831:843   */\n      revert\n        /* \"--CODEGEN--\":795:797   */\n    tag_124:\n        /* \"--CODEGEN--\":861:924   */\n      tag_125\n        /* \"--CODEGEN--\":916:923   */\n      dup5\n        /* \"--CODEGEN--\":907:913   */\n      dup3\n        /* \"--CODEGEN--\":896:905   */\n      dup6\n        /* \"--CODEGEN--\":892:914   */\n      add\n        /* \"--CODEGEN--\":861:924   */\n      jump(tag_108)\n    tag_125:\n        /* \"--CODEGEN--\":851:924   */\n      swap2\n      pop\n        /* \"--CODEGEN--\":737:930   */\n      pop\n        /* \"--CODEGEN--\":669:940   */\n      swap3\n      swap2\n      pop\n      pop\n      jump\n        /* \"--CODEGEN--\":947:1419   */\n    tag_49:\n      0x00\n      dup1\n        /* \"--CODEGEN--\":1078:1080   */\n      0x40\n        /* \"--CODEGEN--\":1066:1075   */\n      dup4\n        /* \"--CODEGEN--\":1057:1064   */\n      dup6\n        /* \"--CODEGEN--\":1053:1076   */\n      sub\n        /* \"--CODEGEN--\":1049:1081   */\n      slt\n        /* \"--CODEGEN--\":1046:1048   */\n      iszero\n      tag_127\n      jumpi\n        /* \"--CODEGEN--\":1094:1095   */\n      0x00\n        /* \"--CODEGEN--\":1091:1092   */\n      dup1\n        /* \"--CODEGEN--\":1084:1096   */\n      revert\n        /* \"--CODEGEN--\":1046:1048   */\n    tag_127:\n        /* \"--CODEGEN--\":1157:1158   */\n      0x00\n        /* \"--CODEGEN--\":1146:1155   */\n      dup4\n        /* \"--CODEGEN--\":1142:1159   */\n      add\n        /* \"--CODEGEN--\":1129:1160   */\n      calldataload\n        /* \"--CODEGEN--\":1180:1198   */\n      0xffffffffffffffff\n        /* \"--CODEGEN--\":1172:1178   */\n      dup2\n        /* \"--CODEGEN--\":1169:1199   */\n      gt\n        /* \"--CODEGEN--\":1166:1168   */\n      iszero\n      tag_128\n      jumpi\n        /* \"--CODEGEN--\":1212:1213   */\n      0x00\n        /* \"--CODEGEN--\":1209:1210   */\n      dup1\n        /* \"--CODEGEN--\":1202:1214   */\n      revert\n        /* \"--CODEGEN--\":1166:1168   */\n    tag_128:\n        /* \"--CODEGEN--\":1232:1295   */\n      tag_129\n        /* \"--CODEGEN--\":1287:1294   */\n      dup6\n        /* \"--CODEGEN--\":1278:1284   */\n      dup3\n        /* \"--CODEGEN--\":1267:1276   */\n      dup7\n        /* \"--CODEGEN--\":1263:1285   */\n      add\n        /* \"--CODEGEN--\":1232:1295   */\n      jump(tag_108)\n    tag_129:\n        /* \"--CODEGEN--\":1222:1295   */\n      swap3\n      pop\n        /* \"--CODEGEN--\":1108:1301   */\n      pop\n        /* \"--CODEGEN--\":1332:1334   */\n      0x20\n        /* \"--CODEGEN--\":1350:1403   */\n      tag_130\n        /* \"--CODEGEN--\":1395:1402   */\n      dup6\n        /* \"--CODEGEN--\":1386:1392   */\n      dup3\n        /* \"--CODEGEN--\":1375:1384   */\n      dup7\n        /* \"--CODEGEN--\":1371:1393   */\n      add\n        /* \"--CODEGEN--\":1350:1403   */\n      jump(tag_118)\n    tag_130:\n        /* \"--CODEGEN--\":1340:1403   */\n      swap2\n      pop\n        /* \"--CODEGEN--\":1311:1409   */\n      pop\n        /* \"--CODEGEN--\":1040:1419   */\n      swap3\n      pop\n      swap3\n      swap1\n      pop\n      jump\n        /* \"--CODEGEN--\":1426:1667   */\n    tag_20:\n      0x00\n        /* \"--CODEGEN--\":1530:1532   */\n      0x20\n        /* \"--CODEGEN--\":1518:1527   */\n      dup3\n        /* \"--CODEGEN--\":1509:1516   */\n      dup5\n        /* \"--CODEGEN--\":1505:1528   */\n      sub\n        /* \"--CODEGEN--\":1501:1533   */\n      slt\n        /* \"--CODEGEN--\":1498:1500   */\n      iszero\n      tag_132\n      jumpi\n        /* \"--CODEGEN--\":1546:1547   */\n      0x00\n        /* \"--CODEGEN--\":1543:1544   */\n      dup1\n        /* \"--CODEGEN--\":1536:1548   */\n      revert\n        /* \"--CODEGEN--\":1498:1500   */\n    tag_132:\n        /* \"--CODEGEN--\":1581:1582   */\n      0x00\n        /* \"--CODEGEN--\":1598:1651   */\n      tag_133\n        /* \"--CODEGEN--\":1643:1650   */\n      dup5\n        /* \"--CODEGEN--\":1634:1640   */\n      dup3\n        /* \"--CODEGEN--\":1623:1632   */\n      dup6\n        /* \"--CODEGEN--\":1619:1641   */\n      add\n        /* \"--CODEGEN--\":1598:1651   */\n      jump(tag_118)\n    tag_133:\n        /* \"--CODEGEN--\":1588:1651   */\n      swap2\n      pop\n        /* \"--CODEGEN--\":1560:1657   */\n      pop\n        /* \"--CODEGEN--\":1492:1667   */\n      swap3\n      swap2\n      pop\n      pop\n      jump\n        /* \"--CODEGEN--\":1674:2040   */\n    tag_60:\n      0x00\n      dup1\n        /* \"--CODEGEN--\":1795:1797   */\n      0x40\n        /* \"--CODEGEN--\":1783:1792   */\n      dup4\n        /* \"--CODEGEN--\":1774:1781   */\n      dup6\n        /* \"--CODEGEN--\":1770:1793   */\n      sub\n        /* \"--CODEGEN--\":1766:1798   */\n      slt\n        /* \"--CODEGEN--\":1763:1765   */\n      iszero\n      tag_135\n      jumpi\n        /* \"--CODEGEN--\":1811:1812   */\n      0x00\n        /* \"--CODEGEN--\":1808:1809   */\n      dup1\n        /* \"--CODEGEN--\":1801:1813   */\n      revert\n        /* \"--CODEGEN--\":1763:1765   */\n    tag_135:\n        /* \"--CODEGEN--\":1846:1847   */\n      0x00\n        /* \"--CODEGEN--\":1863:1916   */\n      tag_136\n        /* \"--CODEGEN--\":1908:1915   */\n      dup6\n        /* \"--CODEGEN--\":1899:1905   */\n      dup3\n        /* \"--CODEGEN--\":1888:1897   */\n      dup7\n        /* \"--CODEGEN--\":1884:1906   */\n      add\n        /* \"--CODEGEN--\":1863:1916   */\n      jump(tag_118)\n    tag_136:\n        /* \"--CODEGEN--\":1853:1916   */\n      swap3\n      pop\n        /* \"--CODEGEN--\":1825:1922   */\n      pop\n        /* \"--CODEGEN--\":1953:1955   */\n      0x20\n        /* \"--CODEGEN--\":1971:2024   */\n      tag_137\n        /* \"--CODEGEN--\":2016:2023   */\n      dup6\n        /* \"--CODEGEN--\":2007:2013   */\n      dup3\n        /* \"--CODEGEN--\":1996:2005   */\n      dup7\n        /* \"--CODEGEN--\":1992:2014   */\n      add\n        /* \"--CODEGEN--\":1971:2024   */\n      jump(tag_118)\n    tag_137:\n        /* \"--CODEGEN--\":1961:2024   */\n      swap2\n      pop\n        /* \"--CODEGEN--\":1932:2030   */\n      pop\n        /* \"--CODEGEN--\":1757:2040   */\n      swap3\n      pop\n      swap3\n      swap1\n      pop\n      jump\n        /* \"--CODEGEN--\":2047:2394   */\n    tag_138:\n      0x00\n        /* \"--CODEGEN--\":2159:2198   */\n      tag_140\n        /* \"--CODEGEN--\":2192:2197   */\n      dup3\n        /* \"--CODEGEN--\":2159:2198   */\n      jump(tag_141)\n    tag_140:\n        /* \"--CODEGEN--\":2210:2281   */\n      tag_142\n        /* \"--CODEGEN--\":2274:2280   */\n      dup2\n        /* \"--CODEGEN--\":2269:2272   */\n      dup6\n        /* \"--CODEGEN--\":2210:2281   */\n      jump(tag_143)\n    tag_142:\n        /* \"--CODEGEN--\":2203:2281   */\n      swap4\n      pop\n        /* \"--CODEGEN--\":2286:2338   */\n      tag_144\n        /* \"--CODEGEN--\":2331:2337   */\n      dup2\n        /* \"--CODEGEN--\":2326:2329   */\n      dup6\n        /* \"--CODEGEN--\":2319:2323   */\n      0x20\n        /* \"--CODEGEN--\":2312:2317   */\n      dup7\n        /* \"--CODEGEN--\":2308:2324   */\n      add\n        /* \"--CODEGEN--\":2286:2338   */\n      jump(tag_145)\n    tag_144:\n        /* \"--CODEGEN--\":2359:2388   */\n      tag_146\n        /* \"--CODEGEN--\":2381:2387   */\n      dup2\n        /* \"--CODEGEN--\":2359:2388   */\n      jump(tag_147)\n    tag_146:\n        /* \"--CODEGEN--\":2354:2357   */\n      dup5\n        /* \"--CODEGEN--\":2350:2389   */\n      add\n        /* \"--CODEGEN--\":2343:2389   */\n      swap2\n      pop\n        /* \"--CODEGEN--\":2139:2394   */\n      pop\n      swap3\n      swap2\n      pop\n      pop\n      jump\n        /* \"--CODEGEN--\":2401:2761   */\n    tag_148:\n      0x00\n        /* \"--CODEGEN--\":2531:2570   */\n      tag_150\n        /* \"--CODEGEN--\":2564:2569   */\n      dup3\n        /* \"--CODEGEN--\":2531:2570   */\n      jump(tag_141)\n    tag_150:\n        /* \"--CODEGEN--\":2582:2671   */\n      tag_151\n        /* \"--CODEGEN--\":2664:2670   */\n      dup2\n        /* \"--CODEGEN--\":2659:2662   */\n      dup6\n        /* \"--CODEGEN--\":2582:2671   */\n      jump(tag_152)\n    tag_151:\n        /* \"--CODEGEN--\":2575:2671   */\n      swap4\n      pop\n        /* \"--CODEGEN--\":2676:2728   */\n      tag_153\n        /* \"--CODEGEN--\":2721:2727   */\n      dup2\n        /* \"--CODEGEN--\":2716:2719   */\n      dup6\n        /* \"--CODEGEN--\":2709:2713   */\n      0x20\n        /* \"--CODEGEN--\":2702:2707   */\n      dup7\n        /* \"--CODEGEN--\":2698:2714   */\n      add\n        /* \"--CODEGEN--\":2676:2728   */\n      jump(tag_145)\n    tag_153:\n        /* \"--CODEGEN--\":2749:2755   */\n      dup1\n        /* \"--CODEGEN--\":2744:2747   */\n      dup5\n        /* \"--CODEGEN--\":2740:2756   */\n      add\n        /* \"--CODEGEN--\":2733:2756   */\n      swap2\n      pop\n        /* \"--CODEGEN--\":2511:2761   */\n      pop\n      swap3\n      swap2\n      pop\n      pop\n      jump\n        /* \"--CODEGEN--\":2768:2881   */\n    tag_154:\n        /* \"--CODEGEN--\":2851:2875   */\n      tag_156\n        /* \"--CODEGEN--\":2869:2874   */\n      dup2\n        /* \"--CODEGEN--\":2851:2875   */\n      jump(tag_157)\n    tag_156:\n        /* \"--CODEGEN--\":2846:2849   */\n      dup3\n        /* \"--CODEGEN--\":2839:2876   */\n      mstore\n        /* \"--CODEGEN--\":2833:2881   */\n      pop\n      pop\n      jump\n        /* \"--CODEGEN--\":2888:3154   */\n    tag_72:\n      0x00\n        /* \"--CODEGEN--\":3034:3129   */\n      tag_159\n        /* \"--CODEGEN--\":3125:3128   */\n      dup3\n        /* \"--CODEGEN--\":3116:3122   */\n      dup5\n        /* \"--CODEGEN--\":3034:3129   */\n      jump(tag_148)\n    tag_159:\n        /* \"--CODEGEN--\":3027:3129   */\n      swap2\n      pop\n        /* \"--CODEGEN--\":3146:3149   */\n      dup2\n        /* \"--CODEGEN--\":3139:3149   */\n      swap1\n      pop\n        /* \"--CODEGEN--\":3015:3154   */\n      swap3\n      swap2\n      pop\n      pop\n      jump\n        /* \"--CODEGEN--\":3161:3588   */\n    tag_97:\n      0x00\n        /* \"--CODEGEN--\":3355:3450   */\n      tag_161\n        /* \"--CODEGEN--\":3446:3449   */\n      dup3\n        /* \"--CODEGEN--\":3437:3443   */\n      dup6\n        /* \"--CODEGEN--\":3355:3450   */\n      jump(tag_148)\n    tag_161:\n        /* \"--CODEGEN--\":3348:3450   */\n      swap2\n      pop\n        /* \"--CODEGEN--\":3468:3563   */\n      tag_162\n        /* \"--CODEGEN--\":3559:3562   */\n      dup3\n        /* \"--CODEGEN--\":3550:3556   */\n      dup5\n        /* \"--CODEGEN--\":3468:3563   */\n      jump(tag_148)\n    tag_162:\n        /* \"--CODEGEN--\":3461:3563   */\n      swap2\n      pop\n        /* \"--CODEGEN--\":3580:3583   */\n      dup2\n        /* \"--CODEGEN--\":3573:3583   */\n      swap1\n      pop\n        /* \"--CODEGEN--\":3336:3588   */\n      swap4\n      swap3\n      pop\n      pop\n      pop\n      jump\n        /* \"--CODEGEN--\":3595:3896   */\n    tag_39:\n      0x00\n        /* \"--CODEGEN--\":3733:3735   */\n      0x20\n        /* \"--CODEGEN--\":3722:3731   */\n      dup3\n        /* \"--CODEGEN--\":3718:3736   */\n      add\n        /* \"--CODEGEN--\":3710:3736   */\n      swap1\n      pop\n        /* \"--CODEGEN--\":3783:3792   */\n      dup2\n        /* \"--CODEGEN--\":3777:3781   */\n      dup2\n        /* \"--CODEGEN--\":3773:3793   */\n      sub\n        /* \"--CODEGEN--\":3769:3770   */\n      0x00\n        /* \"--CODEGEN--\":3758:3767   */\n      dup4\n        /* \"--CODEGEN--\":3754:3771   */\n      add\n        /* \"--CODEGEN--\":3747:3794   */\n      mstore\n        /* \"--CODEGEN--\":3808:3886   */\n      tag_164\n        /* \"--CODEGEN--\":3881:3885   */\n      dup2\n        /* \"--CODEGEN--\":3872:3878   */\n      dup5\n        /* \"--CODEGEN--\":3808:3886   */\n      jump(tag_138)\n    tag_164:\n        /* \"--CODEGEN--\":3800:3886   */\n      swap1\n      pop\n        /* \"--CODEGEN--\":3704:3896   */\n      swap3\n      swap2\n      pop\n      pop\n      jump\n        /* \"--CODEGEN--\":3903:4116   */\n    tag_25:\n      0x00\n        /* \"--CODEGEN--\":4021:4023   */\n      0x20\n        /* \"--CODEGEN--\":4010:4019   */\n      dup3\n        /* \"--CODEGEN--\":4006:4024   */\n      add\n        /* \"--CODEGEN--\":3998:4024   */\n      swap1\n      pop\n        /* \"--CODEGEN--\":4035:4106   */\n      tag_166\n        /* \"--CODEGEN--\":4103:4104   */\n      0x00\n        /* \"--CODEGEN--\":4092:4101   */\n      dup4\n        /* \"--CODEGEN--\":4088:4105   */\n      add\n        /* \"--CODEGEN--\":4079:4085   */\n      dup5\n        /* \"--CODEGEN--\":4035:4106   */\n      jump(tag_154)\n    tag_166:\n        /* \"--CODEGEN--\":3992:4116   */\n      swap3\n      swap2\n      pop\n      pop\n      jump\n        /* \"--CODEGEN--\":4123:4379   */\n    tag_114:\n      0x00\n        /* \"--CODEGEN--\":4185:4187   */\n      0x40\n        /* \"--CODEGEN--\":4179:4188   */\n      mload\n        /* \"--CODEGEN--\":4169:4188   */\n      swap1\n      pop\n        /* \"--CODEGEN--\":4223:4227   */\n      dup2\n        /* \"--CODEGEN--\":4215:4221   */\n      dup2\n        /* \"--CODEGEN--\":4211:4228   */\n      add\n        /* \"--CODEGEN--\":4322:4328   */\n      dup2\n        /* \"--CODEGEN--\":4310:4320   */\n      dup2\n        /* \"--CODEGEN--\":4307:4329   */\n      lt\n        /* \"--CODEGEN--\":4286:4304   */\n      0xffffffffffffffff\n        /* \"--CODEGEN--\":4274:4284   */\n      dup3\n        /* \"--CODEGEN--\":4271:4305   */\n      gt\n        /* \"--CODEGEN--\":4268:4330   */\n      or\n        /* \"--CODEGEN--\":4265:4267   */\n      iszero\n      tag_168\n      jumpi\n        /* \"--CODEGEN--\":4343:4344   */\n      0x00\n        /* \"--CODEGEN--\":4340:4341   */\n      dup1\n        /* \"--CODEGEN--\":4333:4345   */\n      revert\n        /* \"--CODEGEN--\":4265:4267   */\n    tag_168:\n        /* \"--CODEGEN--\":4363:4373   */\n      dup1\n        /* \"--CODEGEN--\":4359:4361   */\n      0x40\n        /* \"--CODEGEN--\":4352:4374   */\n      mstore\n        /* \"--CODEGEN--\":4163:4379   */\n      pop\n      swap2\n      swap1\n      pop\n      jump\n        /* \"--CODEGEN--\":4386:4708   */\n    tag_113:\n      0x00\n        /* \"--CODEGEN--\":4530:4548   */\n      0xffffffffffffffff\n        /* \"--CODEGEN--\":4522:4528   */\n      dup3\n        /* \"--CODEGEN--\":4519:4549   */\n      gt\n        /* \"--CODEGEN--\":4516:4518   */\n      iszero\n      tag_170\n      jumpi\n        /* \"--CODEGEN--\":4562:4563   */\n      0x00\n        /* \"--CODEGEN--\":4559:4560   */\n      dup1\n        /* \"--CODEGEN--\":4552:4564   */\n      revert\n        /* \"--CODEGEN--\":4516:4518   */\n    tag_170:\n        /* \"--CODEGEN--\":4629:4633   */\n      0x1f\n        /* \"--CODEGEN--\":4625:4634   */\n      not\n        /* \"--CODEGEN--\":4618:4622   */\n      0x1f\n        /* \"--CODEGEN--\":4610:4616   */\n      dup4\n        /* \"--CODEGEN--\":4606:4623   */\n      add\n        /* \"--CODEGEN--\":4602:4635   */\n      and\n        /* \"--CODEGEN--\":4594:4635   */\n      swap1\n      pop\n        /* \"--CODEGEN--\":4693:4697   */\n      0x20\n        /* \"--CODEGEN--\":4687:4691   */\n      dup2\n        /* \"--CODEGEN--\":4683:4698   */\n      add\n        /* \"--CODEGEN--\":4675:4698   */\n      swap1\n      pop\n        /* \"--CODEGEN--\":4453:4708   */\n      swap2\n      swap1\n      pop\n      jump\n        /* \"--CODEGEN--\":4715:4837   */\n    tag_141:\n      0x00\n        /* \"--CODEGEN--\":4809:4814   */\n      dup2\n        /* \"--CODEGEN--\":4803:4815   */\n      mload\n        /* \"--CODEGEN--\":4793:4815   */\n      swap1\n      pop\n        /* \"--CODEGEN--\":4774:4837   */\n      swap2\n      swap1\n      pop\n      jump\n        /* \"--CODEGEN--\":4845:5008   */\n    tag_143:\n      0x00\n        /* \"--CODEGEN--\":4960:4966   */\n      dup3\n        /* \"--CODEGEN--\":4955:4958   */\n      dup3\n        /* \"--CODEGEN--\":4948:4967   */\n      mstore\n        /* \"--CODEGEN--\":4997:5001   */\n      0x20\n        /* \"--CODEGEN--\":4992:4995   */\n      dup3\n        /* \"--CODEGEN--\":4988:5002   */\n      add\n        /* \"--CODEGEN--\":4973:5002   */\n      swap1\n      pop\n        /* \"--CODEGEN--\":4941:5008   */\n      swap3\n      swap2\n      pop\n      pop\n      jump\n        /* \"--CODEGEN--\":5017:5162   */\n    tag_152:\n      0x00\n        /* \"--CODEGEN--\":5153:5156   */\n      dup2\n        /* \"--CODEGEN--\":5138:5156   */\n      swap1\n      pop\n        /* \"--CODEGEN--\":5131:5162   */\n      swap3\n      swap2\n      pop\n      pop\n      jump\n        /* \"--CODEGEN--\":5170:5242   */\n    tag_157:\n      0x00\n        /* \"--CODEGEN--\":5232:5237   */\n      dup2\n        /* \"--CODEGEN--\":5221:5237   */\n      swap1\n      pop\n        /* \"--CODEGEN--\":5215:5242   */\n      swap2\n      swap1\n      pop\n      jump\n        /* \"--CODEGEN--\":5250:5395   */\n    tag_117:\n        /* \"--CODEGEN--\":5331:5337   */\n      dup3\n        /* \"--CODEGEN--\":5326:5329   */\n      dup2\n        /* \"--CODEGEN--\":5321:5324   */\n      dup4\n        /* \"--CODEGEN--\":5308:5338   */\n      calldatacopy\n        /* \"--CODEGEN--\":5387:5388   */\n      0x00\n        /* \"--CODEGEN--\":5378:5384   */\n      dup4\n        /* \"--CODEGEN--\":5373:5376   */\n      dup4\n        /* \"--CODEGEN--\":5369:5385   */\n      add\n        /* \"--CODEGEN--\":5362:5389   */\n      mstore\n        /* \"--CODEGEN--\":5301:5395   */\n      pop\n      pop\n      pop\n      jump\n        /* \"--CODEGEN--\":5404:5672   */\n    tag_145:\n        /* \"--CODEGEN--\":5469:5470   */\n      0x00\n        /* \"--CODEGEN--\":5476:5577   */\n    tag_177:\n        /* \"--CODEGEN--\":5490:5496   */\n      dup4\n        /* \"--CODEGEN--\":5487:5488   */\n      dup2\n        /* \"--CODEGEN--\":5484:5497   */\n      lt\n        /* \"--CODEGEN--\":5476:5577   */\n      iszero\n      tag_179\n      jumpi\n        /* \"--CODEGEN--\":5566:5567   */\n      dup1\n        /* \"--CODEGEN--\":5561:5564   */\n      dup3\n        /* \"--CODEGEN--\":5557:5568   */\n      add\n        /* \"--CODEGEN--\":5551:5569   */\n      mload\n        /* \"--CODEGEN--\":5547:5548   */\n      dup2\n        /* \"--CODEGEN--\":5542:5545   */\n      dup5\n        /* \"--CODEGEN--\":5538:5549   */\n      add\n        /* \"--CODEGEN--\":5531:5570   */\n      mstore\n        /* \"--CODEGEN--\":5512:5514   */\n      0x20\n        /* \"--CODEGEN--\":5509:5510   */\n      dup2\n        /* \"--CODEGEN--\":5505:5515   */\n      add\n        /* \"--CODEGEN--\":5500:5515   */\n      swap1\n      pop\n        /* \"--CODEGEN--\":5476:5577   */\n      jump(tag_177)\n    tag_179:\n        /* \"--CODEGEN--\":5592:5598   */\n      dup4\n        /* \"--CODEGEN--\":5589:5590   */\n      dup2\n        /* \"--CODEGEN--\":5586:5599   */\n      gt\n        /* \"--CODEGEN--\":5583:5585   */\n      iszero\n      tag_180\n      jumpi\n        /* \"--CODEGEN--\":5657:5658   */\n      0x00\n        /* \"--CODEGEN--\":5648:5654   */\n      dup5\n        /* \"--CODEGEN--\":5643:5646   */\n      dup5\n        /* \"--CODEGEN--\":5639:5655   */\n      add\n        /* \"--CODEGEN--\":5632:5659   */\n      mstore\n        /* \"--CODEGEN--\":5583:5585   */\n    tag_180:\n        /* \"--CODEGEN--\":5453:5672   */\n      pop\n      pop\n      pop\n      pop\n      jump\n        /* \"--CODEGEN--\":5680:5777   */\n    tag_147:\n      0x00\n        /* \"--CODEGEN--\":5768:5770   */\n      0x1f\n        /* \"--CODEGEN--\":5764:5771   */\n      not\n        /* \"--CODEGEN--\":5759:5761   */\n      0x1f\n        /* \"--CODEGEN--\":5752:5757   */\n      dup4\n        /* \"--CODEGEN--\":5748:5762   */\n      add\n        /* \"--CODEGEN--\":5744:5772   */\n      and\n        /* \"--CODEGEN--\":5734:5772   */\n      swap1\n      pop\n        /* \"--CODEGEN--\":5728:5777   */\n      swap2\n      swap1\n      pop\n      jump\n        /* \"--CODEGEN--\":5785:5902   */\n    tag_121:\n        /* \"--CODEGEN--\":5854:5878   */\n      tag_183\n        /* \"--CODEGEN--\":5872:5877   */\n      dup2\n        /* \"--CODEGEN--\":5854:5878   */\n      jump(tag_157)\n    tag_183:\n        /* \"--CODEGEN--\":5847:5852   */\n      dup2\n        /* \"--CODEGEN--\":5844:5879   */\n      eq\n        /* \"--CODEGEN--\":5834:5836   */\n      tag_184\n      jumpi\n        /* \"--CODEGEN--\":5893:5894   */\n      0x00\n        /* \"--CODEGEN--\":5890:5891   */\n      dup1\n        /* \"--CODEGEN--\":5883:5895   */\n      revert\n        /* \"--CODEGEN--\":5834:5836   */\n    tag_184:\n        /* \"--CODEGEN--\":5828:5902   */\n      pop\n      jump\n\n    auxdata: 0xa2646970667358221220203a9508a9c16b4745fd68180935134663284eb81846e903bd172ac9967a679064736f6c63430006070033\n}\n",
				"bytecode": {
					"linkReferences": {},
					"object": "60806040526000805534801561001457600080fd5b506109c2806100246000396000f3fe608060405234801561001057600080fd5b50600436106100cf5760003560e01c80636b8ff5741161008c57806396fa3a811161006657806396fa3a8114610224578063ef9fc50b14610254578063f2c9ecd814610270578063fb825e5f1461028e576100cf565b80636b8ff574146101ba5780637ba1eab3146101ea5780638381f58a14610206576100cf565b806307391dd6146100d457806308ccbc88146100f057806314b3ee681461010e578063160395401461013e5780634622ab031461016e5780634f3d057a1461019e575b600080fd5b6100ee60048036038101906100e99190610742565b6102ac565b005b6100f86102be565b604051610105919061087d565b60405180910390f35b610128600480360381019061012391906106ad565b6102cb565b604051610135919061087d565b60405180910390f35b61015860048036038101906101539190610742565b6102f3565b604051610165919061087d565b60405180910390f35b61018860048036038101906101839190610742565b610301565b604051610195919061085b565b60405180910390f35b6101b860048036038101906101b391906106ad565b6103ba565b005b6101d460048036038101906101cf9190610742565b6103f9565b6040516101e1919061085b565b60405180910390f35b61020460048036038101906101ff91906106ee565b6104b2565b005b61020e6104d9565b60405161021b919061087d565b60405180910390f35b61023e600480360381019061023991906106ad565b6104df565b60405161024b919061087d565b60405180910390f35b61026e6004803603810190610269919061076b565b61050d565b005b61027861051a565b604051610285919061087d565b60405180910390f35b610296610523565b6040516102a3919061085b565b60405180910390f35b80600080828254019250508190555050565b6000600180549050905090565b60006002826040516102dd9190610820565b9081526020016040518091039020549050919050565b600081600054029050919050565b6001818154811061030e57fe5b906000526020600020016000915090508054600181600116156101000203166002900480601f0160208091040260200160405190810160405280929190818152602001828054600181600116156101000203166002900480156103b25780601f10610387576101008083540402835291602001916103b2565b820191906000526020600020905b81548152906001019060200180831161039557829003601f168201915b505050505081565b6001819080600181540180825580915050600190039060005260206000200160009091909190915090805190602001906103f592919061059f565b5050565b60606001828154811061040857fe5b906000526020600020018054600181600116156101000203166002900480601f0160208091040260200160405190810160405280929190818152602001828054600181600116156101000203166002900480156104a65780601f1061047b576101008083540402835291602001916104a6565b820191906000526020600020905b81548152906001019060200180831161048957829003601f168201915b50505050509050919050565b806002836040516104c39190610820565b9081526020016040518091039020819055505050565b60005481565b6002818051602081018201805184825260208301602085012081835280955050505050506000915090505481565b8082016000819055505050565b60008054905090565b6060600061052f6102be565b905060606040518060400160405280600b81526020017f4e616d6573206172653a20000000000000000000000000000000000000000000815250905080610575836103f9565b604051602001610586929190610837565b6040516020818303038152906040529050809250505090565b828054600181600116156101000203166002900490600052602060002090601f016020900481019282601f106105e057805160ff191683800117855561060e565b8280016001018555821561060e579182015b8281111561060d5782518255916020019190600101906105f2565b5b50905061061b919061061f565b5090565b61064191905b8082111561063d576000816000905550600101610625565b5090565b90565b600082601f83011261065557600080fd5b8135610668610663826108c5565b610898565b9150808252602083016020830185838301111561068457600080fd5b61068f838284610922565b50505092915050565b6000813590506106a781610975565b92915050565b6000602082840312156106bf57600080fd5b600082013567ffffffffffffffff8111156106d957600080fd5b6106e584828501610644565b91505092915050565b6000806040838503121561070157600080fd5b600083013567ffffffffffffffff81111561071b57600080fd5b61072785828601610644565b925050602061073885828601610698565b9150509250929050565b60006020828403121561075457600080fd5b600061076284828501610698565b91505092915050565b6000806040838503121561077e57600080fd5b600061078c85828601610698565b925050602061079d85828601610698565b9150509250929050565b60006107b2826108f1565b6107bc81856108fc565b93506107cc818560208601610931565b6107d581610964565b840191505092915050565b60006107eb826108f1565b6107f5818561090d565b9350610805818560208601610931565b80840191505092915050565b61081a81610918565b82525050565b600061082c82846107e0565b915081905092915050565b600061084382856107e0565b915061084f82846107e0565b91508190509392505050565b6000602082019050818103600083015261087581846107a7565b905092915050565b60006020820190506108926000830184610811565b92915050565b6000604051905081810181811067ffffffffffffffff821117156108bb57600080fd5b8060405250919050565b600067ffffffffffffffff8211156108dc57600080fd5b601f19601f8301169050602081019050919050565b600081519050919050565b600082825260208201905092915050565b600081905092915050565b6000819050919050565b82818337600083830152505050565b60005b8381101561094f578082015181840152602081019050610934565b8381111561095e576000848401525b50505050565b6000601f19601f8301169050919050565b61097e81610918565b811461098957600080fd5b5056fea2646970667358221220203a9508a9c16b4745fd68180935134663284eb81846e903bd172ac9967a679064736f6c63430006070033",
					"opcodes": "PUSH1 0x80 PUSH1 0x40 MSTORE PUSH1 0x0 DUP1 SSTORE CALLVALUE DUP1 ISZERO PUSH2 0x14 JUMPI PUSH1 0x0 DUP1 REVERT JUMPDEST POP PUSH2 0x9C2 DUP1 PUSH2 0x24 PUSH1 0x0 CODECOPY PUSH1 0x0 RETURN INVALID PUSH1 0x80 PUSH1 0x40 MSTORE CALLVALUE DUP1 ISZERO PUSH2 0x10 JUMPI PUSH1 0x0 DUP1 REVERT JUMPDEST POP PUSH1 0x4 CALLDATASIZE LT PUSH2 0xCF JUMPI PUSH1 0x0 CALLDATALOAD PUSH1 0xE0 SHR DUP1 PUSH4 0x6B8FF574 GT PUSH2 0x8C JUMPI DUP1 PUSH4 0x96FA3A81 GT PUSH2 0x66 JUMPI DUP1 PUSH4 0x96FA3A81 EQ PUSH2 0x224 JUMPI DUP1 PUSH4 0xEF9FC50B EQ PUSH2 0x254 JUMPI DUP1 PUSH4 0xF2C9ECD8 EQ PUSH2 0x270 JUMPI DUP1 PUSH4 0xFB825E5F EQ PUSH2 0x28E JUMPI PUSH2 0xCF JUMP JUMPDEST DUP1 PUSH4 0x6B8FF574 EQ PUSH2 0x1BA JUMPI DUP1 PUSH4 0x7BA1EAB3 EQ PUSH2 0x1EA JUMPI DUP1 PUSH4 0x8381F58A EQ PUSH2 0x206 JUMPI PUSH2 0xCF JUMP JUMPDEST DUP1 PUSH4 0x7391DD6 EQ PUSH2 0xD4 JUMPI DUP1 PUSH4 0x8CCBC88 EQ PUSH2 0xF0 JUMPI DUP1 PUSH4 0x14B3EE68 EQ PUSH2 0x10E JUMPI DUP1 PUSH4 0x16039540 EQ PUSH2 0x13E JUMPI DUP1 PUSH4 0x4622AB03 EQ PUSH2 0x16E JUMPI DUP1 PUSH4 0x4F3D057A EQ PUSH2 0x19E JUMPI JUMPDEST PUSH1 0x0 DUP1 REVERT JUMPDEST PUSH2 0xEE PUSH1 0x4 DUP1 CALLDATASIZE SUB DUP2 ADD SWAP1 PUSH2 0xE9 SWAP2 SWAP1 PUSH2 0x742 JUMP JUMPDEST PUSH2 0x2AC JUMP JUMPDEST STOP JUMPDEST PUSH2 0xF8 PUSH2 0x2BE JUMP JUMPDEST PUSH1 0x40 MLOAD PUSH2 0x105 SWAP2 SWAP1 PUSH2 0x87D JUMP JUMPDEST PUSH1 0x40 MLOAD DUP1 SWAP2 SUB SWAP1 RETURN JUMPDEST PUSH2 0x128 PUSH1 0x4 DUP1 CALLDATASIZE SUB DUP2 ADD SWAP1 PUSH2 0x123 SWAP2 SWAP1 PUSH2 0x6AD JUMP JUMPDEST PUSH2 0x2CB JUMP JUMPDEST PUSH1 0x40 MLOAD PUSH2 0x135 SWAP2 SWAP1 PUSH2 0x87D JUMP JUMPDEST PUSH1 0x40 MLOAD DUP1 SWAP2 SUB SWAP1 RETURN JUMPDEST PUSH2 0x158 PUSH1 0x4 DUP1 CALLDATASIZE SUB DUP2 ADD SWAP1 PUSH2 0x153 SWAP2 SWAP1 PUSH2 0x742 JUMP JUMPDEST PUSH2 0x2F3 JUMP JUMPDEST PUSH1 0x40 MLOAD PUSH2 0x165 SWAP2 SWAP1 PUSH2 0x87D JUMP JUMPDEST PUSH1 0x40 MLOAD DUP1 SWAP2 SUB SWAP1 RETURN JUMPDEST PUSH2 0x188 PUSH1 0x4 DUP1 CALLDATASIZE SUB DUP2 ADD SWAP1 PUSH2 0x183 SWAP2 SWAP1 PUSH2 0x742 JUMP JUMPDEST PUSH2 0x301 JUMP JUMPDEST PUSH1 0x40 MLOAD PUSH2 0x195 SWAP2 SWAP1 PUSH2 0x85B JUMP JUMPDEST PUSH1 0x40 MLOAD DUP1 SWAP2 SUB SWAP1 RETURN JUMPDEST PUSH2 0x1B8 PUSH1 0x4 DUP1 CALLDATASIZE SUB DUP2 ADD SWAP1 PUSH2 0x1B3 SWAP2 SWAP1 PUSH2 0x6AD JUMP JUMPDEST PUSH2 0x3BA JUMP JUMPDEST STOP JUMPDEST PUSH2 0x1D4 PUSH1 0x4 DUP1 CALLDATASIZE SUB DUP2 ADD SWAP1 PUSH2 0x1CF SWAP2 SWAP1 PUSH2 0x742 JUMP JUMPDEST PUSH2 0x3F9 JUMP JUMPDEST PUSH1 0x40 MLOAD PUSH2 0x1E1 SWAP2 SWAP1 PUSH2 0x85B JUMP JUMPDEST PUSH1 0x40 MLOAD DUP1 SWAP2 SUB SWAP1 RETURN JUMPDEST PUSH2 0x204 PUSH1 0x4 DUP1 CALLDATASIZE SUB DUP2 ADD SWAP1 PUSH2 0x1FF SWAP2 SWAP1 PUSH2 0x6EE JUMP JUMPDEST PUSH2 0x4B2 JUMP JUMPDEST STOP JUMPDEST PUSH2 0x20E PUSH2 0x4D9 JUMP JUMPDEST PUSH1 0x40 MLOAD PUSH2 0x21B SWAP2 SWAP1 PUSH2 0x87D JUMP JUMPDEST PUSH1 0x40 MLOAD DUP1 SWAP2 SUB SWAP1 RETURN JUMPDEST PUSH2 0x23E PUSH1 0x4 DUP1 CALLDATASIZE SUB DUP2 ADD SWAP1 PUSH2 0x239 SWAP2 SWAP1 PUSH2 0x6AD JUMP JUMPDEST PUSH2 0x4DF JUMP JUMPDEST PUSH1 0x40 MLOAD PUSH2 0x24B SWAP2 SWAP1 PUSH2 0x87D JUMP JUMPDEST PUSH1 0x40 MLOAD DUP1 SWAP2 SUB SWAP1 RETURN JUMPDEST PUSH2 0x26E PUSH1 0x4 DUP1 CALLDATASIZE SUB DUP2 ADD SWAP1 PUSH2 0x269 SWAP2 SWAP1 PUSH2 0x76B JUMP JUMPDEST PUSH2 0x50D JUMP JUMPDEST STOP JUMPDEST PUSH2 0x278 PUSH2 0x51A JUMP JUMPDEST PUSH1 0x40 MLOAD PUSH2 0x285 SWAP2 SWAP1 PUSH2 0x87D JUMP JUMPDEST PUSH1 0x40 MLOAD DUP1 SWAP2 SUB SWAP1 RETURN JUMPDEST PUSH2 0x296 PUSH2 0x523 JUMP JUMPDEST PUSH1 0x40 MLOAD PUSH2 0x2A3 SWAP2 SWAP1 PUSH2 0x85B JUMP JUMPDEST PUSH1 0x40 MLOAD DUP1 SWAP2 SUB SWAP1 RETURN JUMPDEST DUP1 PUSH1 0x0 DUP1 DUP3 DUP3 SLOAD ADD SWAP3 POP POP DUP2 SWAP1 SSTORE POP POP JUMP JUMPDEST PUSH1 0x0 PUSH1 0x1 DUP1 SLOAD SWAP1 POP SWAP1 POP SWAP1 JUMP JUMPDEST PUSH1 0x0 PUSH1 0x2 DUP3 PUSH1 0x40 MLOAD PUSH2 0x2DD SWAP2 SWAP1 PUSH2 0x820 JUMP JUMPDEST SWAP1 DUP2 MSTORE PUSH1 0x20 ADD PUSH1 0x40 MLOAD DUP1 SWAP2 SUB SWAP1 KECCAK256 SLOAD SWAP1 POP SWAP2 SWAP1 POP JUMP JUMPDEST PUSH1 0x0 DUP2 PUSH1 0x0 SLOAD MUL SWAP1 POP SWAP2 SWAP1 POP JUMP JUMPDEST PUSH1 0x1 DUP2 DUP2 SLOAD DUP2 LT PUSH2 0x30E JUMPI INVALID JUMPDEST SWAP1 PUSH1 0x0 MSTORE PUSH1 0x20 PUSH1 0x0 KECCAK256 ADD PUSH1 0x0 SWAP2 POP SWAP1 POP DUP1 SLOAD PUSH1 0x1 DUP2 PUSH1 0x1 AND ISZERO PUSH2 0x100 MUL SUB AND PUSH1 0x2 SWAP1 DIV DUP1 PUSH1 0x1F ADD PUSH1 0x20 DUP1 SWAP2 DIV MUL PUSH1 0x20 ADD PUSH1 0x40 MLOAD SWAP1 DUP2 ADD PUSH1 0x40 MSTORE DUP1 SWAP3 SWAP2 SWAP1 DUP2 DUP2 MSTORE PUSH1 0x20 ADD DUP3 DUP1 SLOAD PUSH1 0x1 DUP2 PUSH1 0x1 AND ISZERO PUSH2 0x100 MUL SUB AND PUSH1 0x2 SWAP1 DIV DUP1 ISZERO PUSH2 0x3B2 JUMPI DUP1 PUSH1 0x1F LT PUSH2 0x387 JUMPI PUSH2 0x100 DUP1 DUP4 SLOAD DIV MUL DUP4 MSTORE SWAP2 PUSH1 0x20 ADD SWAP2 PUSH2 0x3B2 JUMP JUMPDEST DUP3 ADD SWAP2 SWAP1 PUSH1 0x0 MSTORE PUSH1 0x20 PUSH1 0x0 KECCAK256 SWAP1 JUMPDEST DUP2 SLOAD DUP2 MSTORE SWAP1 PUSH1 0x1 ADD SWAP1 PUSH1 0x20 ADD DUP1 DUP4 GT PUSH2 0x395 JUMPI DUP3 SWAP1 SUB PUSH1 0x1F AND DUP3 ADD SWAP2 JUMPDEST POP POP POP POP POP DUP2 JUMP JUMPDEST PUSH1 0x1 DUP2 SWAP1 DUP1 PUSH1 0x1 DUP2 SLOAD ADD DUP1 DUP3 SSTORE DUP1 SWAP2 POP POP PUSH1 0x1 SWAP1 SUB SWAP1 PUSH1 0x0 MSTORE PUSH1 0x20 PUSH1 0x0 KECCAK256 ADD PUSH1 0x0 SWAP1 SWAP2 SWAP1 SWAP2 SWAP1 SWAP2 POP SWAP1 DUP1 MLOAD SWAP1 PUSH1 0x20 ADD SWAP1 PUSH2 0x3F5 SWAP3 SWAP2 SWAP1 PUSH2 0x59F JUMP JUMPDEST POP POP JUMP JUMPDEST PUSH1 0x60 PUSH1 0x1 DUP3 DUP2 SLOAD DUP2 LT PUSH2 0x408 JUMPI INVALID JUMPDEST SWAP1 PUSH1 0x0 MSTORE PUSH1 0x20 PUSH1 0x0 KECCAK256 ADD DUP1 SLOAD PUSH1 0x1 DUP2 PUSH1 0x1 AND ISZERO PUSH2 0x100 MUL SUB AND PUSH1 0x2 SWAP1 DIV DUP1 PUSH1 0x1F ADD PUSH1 0x20 DUP1 SWAP2 DIV MUL PUSH1 0x20 ADD PUSH1 0x40 MLOAD SWAP1 DUP2 ADD PUSH1 0x40 MSTORE DUP1 SWAP3 SWAP2 SWAP1 DUP2 DUP2 MSTORE PUSH1 0x20 ADD DUP3 DUP1 SLOAD PUSH1 0x1 DUP2 PUSH1 0x1 AND ISZERO PUSH2 0x100 MUL SUB AND PUSH1 0x2 SWAP1 DIV DUP1 ISZERO PUSH2 0x4A6 JUMPI DUP1 PUSH1 0x1F LT PUSH2 0x47B JUMPI PUSH2 0x100 DUP1 DUP4 SLOAD DIV MUL DUP4 MSTORE SWAP2 PUSH1 0x20 ADD SWAP2 PUSH2 0x4A6 JUMP JUMPDEST DUP3 ADD SWAP2 SWAP1 PUSH1 0x0 MSTORE PUSH1 0x20 PUSH1 0x0 KECCAK256 SWAP1 JUMPDEST DUP2 SLOAD DUP2 MSTORE SWAP1 PUSH1 0x1 ADD SWAP1 PUSH1 0x20 ADD DUP1 DUP4 GT PUSH2 0x489 JUMPI DUP3 SWAP1 SUB PUSH1 0x1F AND DUP3 ADD SWAP2 JUMPDEST POP POP POP POP POP SWAP1 POP SWAP2 SWAP1 POP JUMP JUMPDEST DUP1 PUSH1 0x2 DUP4 PUSH1 0x40 MLOAD PUSH2 0x4C3 SWAP2 SWAP1 PUSH2 0x820 JUMP JUMPDEST SWAP1 DUP2 MSTORE PUSH1 0x20 ADD PUSH1 0x40 MLOAD DUP1 SWAP2 SUB SWAP1 KECCAK256 DUP2 SWAP1 SSTORE POP POP POP JUMP JUMPDEST PUSH1 0x0 SLOAD DUP2 JUMP JUMPDEST PUSH1 0x2 DUP2 DUP1 MLOAD PUSH1 0x20 DUP2 ADD DUP3 ADD DUP1 MLOAD DUP5 DUP3 MSTORE PUSH1 0x20 DUP4 ADD PUSH1 0x20 DUP6 ADD KECCAK256 DUP2 DUP4 MSTORE DUP1 SWAP6 POP POP POP POP POP POP PUSH1 0x0 SWAP2 POP SWAP1 POP SLOAD DUP2 JUMP JUMPDEST DUP1 DUP3 ADD PUSH1 0x0 DUP2 SWAP1 SSTORE POP POP POP JUMP JUMPDEST PUSH1 0x0 DUP1 SLOAD SWAP1 POP SWAP1 JUMP JUMPDEST PUSH1 0x60 PUSH1 0x0 PUSH2 0x52F PUSH2 0x2BE JUMP JUMPDEST SWAP1 POP PUSH1 0x60 PUSH1 0x40 MLOAD DUP1 PUSH1 0x40 ADD PUSH1 0x40 MSTORE DUP1 PUSH1 0xB DUP2 MSTORE PUSH1 0x20 ADD PUSH32 0x4E616D6573206172653A20000000000000000000000000000000000000000000 DUP2 MSTORE POP SWAP1 POP DUP1 PUSH2 0x575 DUP4 PUSH2 0x3F9 JUMP JUMPDEST PUSH1 0x40 MLOAD PUSH1 0x20 ADD PUSH2 0x586 SWAP3 SWAP2 SWAP1 PUSH2 0x837 JUMP JUMPDEST PUSH1 0x40 MLOAD PUSH1 0x20 DUP2 DUP4 SUB SUB DUP2 MSTORE SWAP1 PUSH1 0x40 MSTORE SWAP1 POP DUP1 SWAP3 POP POP POP SWAP1 JUMP JUMPDEST DUP3 DUP1 SLOAD PUSH1 0x1 DUP2 PUSH1 0x1 AND ISZERO PUSH2 0x100 MUL SUB AND PUSH1 0x2 SWAP1 DIV SWAP1 PUSH1 0x0 MSTORE PUSH1 0x20 PUSH1 0x0 KECCAK256 SWAP1 PUSH1 0x1F ADD PUSH1 0x20 SWAP1 DIV DUP2 ADD SWAP3 DUP3 PUSH1 0x1F LT PUSH2 0x5E0 JUMPI DUP1 MLOAD PUSH1 0xFF NOT AND DUP4 DUP1 ADD OR DUP6 SSTORE PUSH2 0x60E JUMP JUMPDEST DUP3 DUP1 ADD PUSH1 0x1 ADD DUP6 SSTORE DUP3 ISZERO PUSH2 0x60E JUMPI SWAP2 DUP3 ADD JUMPDEST DUP3 DUP2 GT ISZERO PUSH2 0x60D JUMPI DUP3 MLOAD DUP3 SSTORE SWAP2 PUSH1 0x20 ADD SWAP2 SWAP1 PUSH1 0x1 ADD SWAP1 PUSH2 0x5F2 JUMP JUMPDEST JUMPDEST POP SWAP1 POP PUSH2 0x61B SWAP2 SWAP1 PUSH2 0x61F JUMP JUMPDEST POP SWAP1 JUMP JUMPDEST PUSH2 0x641 SWAP2 SWAP1 JUMPDEST DUP1 DUP3 GT ISZERO PUSH2 0x63D JUMPI PUSH1 0x0 DUP2 PUSH1 0x0 SWAP1 SSTORE POP PUSH1 0x1 ADD PUSH2 0x625 JUMP JUMPDEST POP SWAP1 JUMP JUMPDEST SWAP1 JUMP JUMPDEST PUSH1 0x0 DUP3 PUSH1 0x1F DUP4 ADD SLT PUSH2 0x655 JUMPI PUSH1 0x0 DUP1 REVERT JUMPDEST DUP2 CALLDATALOAD PUSH2 0x668 PUSH2 0x663 DUP3 PUSH2 0x8C5 JUMP JUMPDEST PUSH2 0x898 JUMP JUMPDEST SWAP2 POP DUP1 DUP3 MSTORE PUSH1 0x20 DUP4 ADD PUSH1 0x20 DUP4 ADD DUP6 DUP4 DUP4 ADD GT ISZERO PUSH2 0x684 JUMPI PUSH1 0x0 DUP1 REVERT JUMPDEST PUSH2 0x68F DUP4 DUP3 DUP5 PUSH2 0x922 JUMP JUMPDEST POP POP POP SWAP3 SWAP2 POP POP JUMP JUMPDEST PUSH1 0x0 DUP2 CALLDATALOAD SWAP1 POP PUSH2 0x6A7 DUP2 PUSH2 0x975 JUMP JUMPDEST SWAP3 SWAP2 POP POP JUMP JUMPDEST PUSH1 0x0 PUSH1 0x20 DUP3 DUP5 SUB SLT ISZERO PUSH2 0x6BF JUMPI PUSH1 0x0 DUP1 REVERT JUMPDEST PUSH1 0x0 DUP3 ADD CALLDATALOAD PUSH8 0xFFFFFFFFFFFFFFFF DUP2 GT ISZERO PUSH2 0x6D9 JUMPI PUSH1 0x0 DUP1 REVERT JUMPDEST PUSH2 0x6E5 DUP5 DUP3 DUP6 ADD PUSH2 0x644 JUMP JUMPDEST SWAP2 POP POP SWAP3 SWAP2 POP POP JUMP JUMPDEST PUSH1 0x0 DUP1 PUSH1 0x40 DUP4 DUP6 SUB SLT ISZERO PUSH2 0x701 JUMPI PUSH1 0x0 DUP1 REVERT JUMPDEST PUSH1 0x0 DUP4 ADD CALLDATALOAD PUSH8 0xFFFFFFFFFFFFFFFF DUP2 GT ISZERO PUSH2 0x71B JUMPI PUSH1 0x0 DUP1 REVERT JUMPDEST PUSH2 0x727 DUP6 DUP3 DUP7 ADD PUSH2 0x644 JUMP JUMPDEST SWAP3 POP POP PUSH1 0x20 PUSH2 0x738 DUP6 DUP3 DUP7 ADD PUSH2 0x698 JUMP JUMPDEST SWAP2 POP POP SWAP3 POP SWAP3 SWAP1 POP JUMP JUMPDEST PUSH1 0x0 PUSH1 0x20 DUP3 DUP5 SUB SLT ISZERO PUSH2 0x754 JUMPI PUSH1 0x0 DUP1 REVERT JUMPDEST PUSH1 0x0 PUSH2 0x762 DUP5 DUP3 DUP6 ADD PUSH2 0x698 JUMP JUMPDEST SWAP2 POP POP SWAP3 SWAP2 POP POP JUMP JUMPDEST PUSH1 0x0 DUP1 PUSH1 0x40 DUP4 DUP6 SUB SLT ISZERO PUSH2 0x77E JUMPI PUSH1 0x0 DUP1 REVERT JUMPDEST PUSH1 0x0 PUSH2 0x78C DUP6 DUP3 DUP7 ADD PUSH2 0x698 JUMP JUMPDEST SWAP3 POP POP PUSH1 0x20 PUSH2 0x79D DUP6 DUP3 DUP7 ADD PUSH2 0x698 JUMP JUMPDEST SWAP2 POP POP SWAP3 POP SWAP3 SWAP1 POP JUMP JUMPDEST PUSH1 0x0 PUSH2 0x7B2 DUP3 PUSH2 0x8F1 JUMP JUMPDEST PUSH2 0x7BC DUP2 DUP6 PUSH2 0x8FC JUMP JUMPDEST SWAP4 POP PUSH2 0x7CC DUP2 DUP6 PUSH1 0x20 DUP7 ADD PUSH2 0x931 JUMP JUMPDEST PUSH2 0x7D5 DUP2 PUSH2 0x964 JUMP JUMPDEST DUP5 ADD SWAP2 POP POP SWAP3 SWAP2 POP POP JUMP JUMPDEST PUSH1 0x0 PUSH2 0x7EB DUP3 PUSH2 0x8F1 JUMP JUMPDEST PUSH2 0x7F5 DUP2 DUP6 PUSH2 0x90D JUMP JUMPDEST SWAP4 POP PUSH2 0x805 DUP2 DUP6 PUSH1 0x20 DUP7 ADD PUSH2 0x931 JUMP JUMPDEST DUP1 DUP5 ADD SWAP2 POP POP SWAP3 SWAP2 POP POP JUMP JUMPDEST PUSH2 0x81A DUP2 PUSH2 0x918 JUMP JUMPDEST DUP3 MSTORE POP POP JUMP JUMPDEST PUSH1 0x0 PUSH2 0x82C DUP3 DUP5 PUSH2 0x7E0 JUMP JUMPDEST SWAP2 POP DUP2 SWAP1 POP SWAP3 SWAP2 POP POP JUMP JUMPDEST PUSH1 0x0 PUSH2 0x843 DUP3 DUP6 PUSH2 0x7E0 JUMP JUMPDEST SWAP2 POP PUSH2 0x84F DUP3 DUP5 PUSH2 0x7E0 JUMP JUMPDEST SWAP2 POP DUP2 SWAP1 POP SWAP4 SWAP3 POP POP POP JUMP JUMPDEST PUSH1 0x0 PUSH1 0x20 DUP3 ADD SWAP1 POP DUP2 DUP2 SUB PUSH1 0x0 DUP4 ADD MSTORE PUSH2 0x875 DUP2 DUP5 PUSH2 0x7A7 JUMP JUMPDEST SWAP1 POP SWAP3 SWAP2 POP POP JUMP JUMPDEST PUSH1 0x0 PUSH1 0x20 DUP3 ADD SWAP1 POP PUSH2 0x892 PUSH1 0x0 DUP4 ADD DUP5 PUSH2 0x811 JUMP JUMPDEST SWAP3 SWAP2 POP POP JUMP JUMPDEST PUSH1 0x0 PUSH1 0x40 MLOAD SWAP1 POP DUP2 DUP2 ADD DUP2 DUP2 LT PUSH8 0xFFFFFFFFFFFFFFFF DUP3 GT OR ISZERO PUSH2 0x8BB JUMPI PUSH1 0x0 DUP1 REVERT JUMPDEST DUP1 PUSH1 0x40 MSTORE POP SWAP2 SWAP1 POP JUMP JUMPDEST PUSH1 0x0 PUSH8 0xFFFFFFFFFFFFFFFF DUP3 GT ISZERO PUSH2 0x8DC JUMPI PUSH1 0x0 DUP1 REVERT JUMPDEST PUSH1 0x1F NOT PUSH1 0x1F DUP4 ADD AND SWAP1 POP PUSH1 0x20 DUP2 ADD SWAP1 POP SWAP2 SWAP1 POP JUMP JUMPDEST PUSH1 0x0 DUP2 MLOAD SWAP1 POP SWAP2 SWAP1 POP JUMP JUMPDEST PUSH1 0x0 DUP3 DUP3 MSTORE PUSH1 0x20 DUP3 ADD SWAP1 POP SWAP3 SWAP2 POP POP JUMP JUMPDEST PUSH1 0x0 DUP2 SWAP1 POP SWAP3 SWAP2 POP POP JUMP JUMPDEST PUSH1 0x0 DUP2 SWAP1 POP SWAP2 SWAP1 POP JUMP JUMPDEST DUP3 DUP2 DUP4 CALLDATACOPY PUSH1 0x0 DUP4 DUP4 ADD MSTORE POP POP POP JUMP JUMPDEST PUSH1 0x0 JUMPDEST DUP4 DUP2 LT ISZERO PUSH2 0x94F JUMPI DUP1 DUP3 ADD MLOAD DUP2 DUP5 ADD MSTORE PUSH1 0x20 DUP2 ADD SWAP1 POP PUSH2 0x934 JUMP JUMPDEST DUP4 DUP2 GT ISZERO PUSH2 0x95E JUMPI PUSH1 0x0 DUP5 DUP5 ADD MSTORE JUMPDEST POP POP POP POP JUMP JUMPDEST PUSH1 0x0 PUSH1 0x1F NOT PUSH1 0x1F DUP4 ADD AND SWAP1 POP SWAP2 SWAP1 POP JUMP JUMPDEST PUSH2 0x97E DUP2 PUSH2 0x918 JUMP JUMPDEST DUP2 EQ PUSH2 0x989 JUMPI PUSH1 0x0 DUP1 REVERT JUMPDEST POP JUMP INVALID LOG2 PUSH5 0x6970667358 0x22 SLT KECCAK256 KECCAK256 GASPRICE SWAP6 ADDMOD 0xA9 0xC1 PUSH12 0x4745FD68180935134663284E 0xB8 XOR CHAINID 0xE9 SUB 0xBD OR 0x2A 0xC9 SWAP7 PUSH27 0x679064736F6C634300060700330000000000000000000000000000 "
				},
				"gasEstimates": {
					"creation": {
						"codeDepositCost": "499600",
						"executionCost": "5543",
						"totalCost": "505143"
					},
					"external": {
						"addMobileNumber(string,uint256)": "infinite",
						"addNumbers(uint256,uint256)": "infinite",
						"changeNumber(uint256)": "21240",
						"getAllNames()": "1999",
						"getAmmountNames()": "1168",
						"getMobileNumber(string)": "infinite",
						"getName(uint256)": "infinite",
						"getNumber()": "1203",
						"getNumberMultiplied(uint256)": "infinite",
						"mobileNum(string)": "infinite",
						"names(uint256)": "infinite",
						"number()": "1196",
						"push(string)": "infinite"
					}
				},
				"methodIdentifiers": {
					"addMobileNumber(string,uint256)": "7ba1eab3",
					"addNumbers(uint256,uint256)": "ef9fc50b",
					"changeNumber(uint256)": "07391dd6",
					"getAllNames()": "fb825e5f",
					"getAmmountNames()": "08ccbc88",
					"getMobileNumber(string)": "14b3ee68",
					"getName(uint256)": "6b8ff574",
					"getNumber()": "f2c9ecd8",
					"getNumberMultiplied(uint256)": "16039540",
					"mobileNum(string)": "96fa3a81",
					"names(uint256)": "4622ab03",
					"number()": "8381f58a",
					"push(string)": "4f3d057a"
				}
			},
			"storageLayout": {
				"storage": [
					{
						"astId": 5,
						"contract": "contracts/FirstContract.sol:MyFirstContract",
						"label": "number",
						"offset": 0,
						"slot": "0",
						"type": "t_uint256"
					},
					{
						"astId": 8,
						"contract": "contracts/FirstContract.sol:MyFirstContract",
						"label": "names",
						"offset": 0,
						"slot": "1",
						"type": "t_array(t_string_storage)dyn_storage"
					},
					{
						"astId": 12,
						"contract": "contracts/FirstContract.sol:MyFirstContract",
						"label": "mobileNum",
						"offset": 0,
						"slot": "2",
						"type": "t_mapping(t_string_memory_ptr,t_uint256)"
					}
				],
				"types": {
					"t_array(t_string_storage)dyn_storage": {
						"base": "t_string_storage",
						"encoding": "dynamic_array",
						"label": "string[]",
						"numberOfBytes": "32"
					},
					"t_mapping(t_string_memory_ptr,t_uint256)": {
						"encoding": "mapping",
						"key": "t_string_memory_ptr",
						"label": "mapping(string => uint256)",
						"numberOfBytes": "32",
						"value": "t_uint256"
					},
					"t_string_memory_ptr": {
						"encoding": "bytes",
						"label": "string",
						"numberOfBytes": "32"
					},
					"t_string_storage": {
						"encoding": "bytes",
						"label": "string",
						"numberOfBytes": "32"
					},
					"t_uint256": {
						"encoding": "inplace",
						"label": "uint256",
						"numberOfBytes": "32"
					}
				}
			},
			"userdoc": {
				"methods": {}
			}
		}
	}
}