{
	"contracts/FirstContract.sol": {
		"MyFirstContract": {
			"abi": [
				{
					"inputs": [
						{
							"internalType": "string",
							"name": "_name",
							"type": "string"
						},
						{
							"internalType": "uint256",
							"name": "_mobNum",
							"type": "uint256"
						}
					],
					"name": "addMobileNumber",
					"outputs": [],
					"stateMutability": "nonpayable",
					"type": "function"
				},
				{
					"inputs": [
						{
							"internalType": "uint256",
							"name": "_num",
							"type": "uint256"
						},
						{
							"internalType": "uint256",
							"name": "_num1",
							"type": "uint256"
						}
					],
					"name": "addNumbers",
					"outputs": [],
					"stateMutability": "nonpayable",
					"type": "function"
				},
				{
					"inputs": [
						{
							"internalType": "uint256",
							"name": "_num",
							"type": "uint256"
						}
					],
					"name": "changeNumber",
					"outputs": [],
					"stateMutability": "nonpayable",
					"type": "function"
				},
				{
					"inputs": [],
					"name": "getAllNames",
					"outputs": [
						{
							"internalType": "string",
							"name": "",
							"type": "string"
						}
					],
					"stateMutability": "view",
					"type": "function"
				},
				{
					"inputs": [],
					"name": "getAmmountNames",
					"outputs": [
						{
							"internalType": "uint256",
							"name": "",
							"type": "uint256"
						}
					],
					"stateMutability": "view",
					"type": "function"
				},
				{
					"inputs": [
						{
							"internalType": "string",
							"name": "_name",
							"type": "string"
						}
					],
					"name": "getMobileNumber",
					"outputs": [
						{
							"internalType": "uint256",
							"name": "",
							"type": "uint256"
						}
					],
					"stateMutability": "view",
					"type": "function"
				},
				{
					"inputs": [
						{
							"internalType": "uint256",
							"name": "_id",
							"type": "uint256"
						}
					],
					"name": "getName",
					"outputs": [
						{
							"internalType": "string",
							"name": "",
							"type": "string"
						}
					],
					"stateMutability": "view",
					"type": "function"
				},
				{
					"inputs": [],
					"name": "getNumber",
					"outputs": [
						{
							"internalType": "uint256",
							"name": "",
							"type": "uint256"
						}
					],
					"stateMutability": "view",
					"type": "function"
				},
				{
					"inputs": [
						{
							"internalType": "uint256",
							"name": "_num",
							"type": "uint256"
						}
					],
					"name": "getNumberMultiplied",
					"outputs": [
						{
							"internalType": "uint256",
							"name": "",
							"type": "uint256"
						}
					],
					"stateMutability": "view",
					"type": "function"
				},
				{
					"inputs": [
						{
							"internalType": "string",
							"name": "",
							"type": "string"
						}
					],
					"name": "mobileNum",
					"outputs": [
						{
							"internalType": "uint256",
							"name": "",
							"type": "uint256"
						}
					],
					"stateMutability": "view",
					"type": "function"
				},
				{
					"inputs": [
						{
							"internalType": "uint256",
							"name": "",
							"type": "uint256"
						}
					],
					"name": "names",
					"outputs": [
						{
							"internalType": "string",
							"name": "",
							"type": "string"
						}
					],
					"stateMutability": "view",
					"type": "function"
				},
				{
					"inputs": [],
					"name": "number",
					"outputs": [
						{
							"internalType": "uint256",
							"name": "",
							"type": "uint256"
						}
					],
					"stateMutability": "view",
					"type": "function"
				},
				{
					"inputs": [
						{
							"internalType": "string",
							"name": "_name",
							"type": "string"
						}
					],
					"name": "push",
					"outputs": [],
					"stateMutability": "nonpayable",
					"type": "function"
				}
			],
			"devdoc": {
				"methods": {}
			},
			"evm": {
				"assembly": "    /* \"contracts/FirstContract.sol\":101:1465  contract MyFirstContract {\r... */\n  mstore(0x40, 0x80)\n    /* \"contracts/FirstContract.sol\":160:161  0 */\n  0x00\n    /* \"contracts/FirstContract.sol\":136:161  uint256 public number = 0 */\n  dup1\n  sstore\n    /* \"contracts/FirstContract.sol\":101:1465  contract MyFirstContract {\r... */\n  callvalue\n    /* \"--CODEGEN--\":5:14   */\n  dup1\n    /* \"--CODEGEN--\":2:4   */\n  iszero\n  tag_1\n  jumpi\n    /* \"--CODEGEN--\":27:28   */\n  0x00\n    /* \"--CODEGEN--\":24:25   */\n  dup1\n    /* \"--CODEGEN--\":17:29   */\n  revert\n    /* \"--CODEGEN--\":2:4   */\ntag_1:\n    /* \"contracts/FirstContract.sol\":101:1465  contract MyFirstContract {\r... */\n  pop\n  dataSize(sub_0)\n  dup1\n  dataOffset(sub_0)\n  0x00\n  codecopy\n  0x00\n  return\nstop\n\nsub_0: assembly {\n        /* \"contracts/FirstContract.sol\":101:1465  contract MyFirstContract {\r... */\n      mstore(0x40, 0x80)\n      callvalue\n        /* \"--CODEGEN--\":5:14   */\n      dup1\n        /* \"--CODEGEN--\":2:4   */\n      iszero\n      tag_1\n      jumpi\n        /* \"--CODEGEN--\":27:28   */\n      0x00\n        /* \"--CODEGEN--\":24:25   */\n      dup1\n        /* \"--CODEGEN--\":17:29   */\n      revert\n        /* \"--CODEGEN--\":2:4   */\n    tag_1:\n        /* \"contracts/FirstContract.sol\":101:1465  contract MyFirstContract {\r... */\n      pop\n      jumpi(tag_2, lt(calldatasize, 0x04))\n      shr(0xe0, calldataload(0x00))\n      dup1\n      0x6b8ff574\n      gt\n      tag_16\n      jumpi\n      dup1\n      0x96fa3a81\n      gt\n      tag_17\n      jumpi\n      dup1\n      0x96fa3a81\n      eq\n      tag_12\n      jumpi\n      dup1\n      0xef9fc50b\n      eq\n      tag_13\n      jumpi\n      dup1\n      0xf2c9ecd8\n      eq\n      tag_14\n      jumpi\n      dup1\n      0xfb825e5f\n      eq\n      tag_15\n      jumpi\n      jump(tag_2)\n    tag_17:\n      dup1\n      0x6b8ff574\n      eq\n      tag_9\n      jumpi\n      dup1\n      0x7ba1eab3\n      eq\n      tag_10\n      jumpi\n      dup1\n      0x8381f58a\n      eq\n      tag_11\n      jumpi\n      jump(tag_2)\n    tag_16:\n      dup1\n      0x07391dd6\n      eq\n      tag_3\n      jumpi\n      dup1\n      0x08ccbc88\n      eq\n      tag_4\n      jumpi\n      dup1\n      0x14b3ee68\n      eq\n      tag_5\n      jumpi\n      dup1\n      0x16039540\n      eq\n      tag_6\n      jumpi\n      dup1\n      0x4622ab03\n      eq\n      tag_7\n      jumpi\n      dup1\n      0x4f3d057a\n      eq\n      tag_8\n      jumpi\n    tag_2:\n        /* \"--CODEGEN--\":12:13   */\n      0x00\n        /* \"--CODEGEN--\":9:10   */\n      dup1\n        /* \"--CODEGEN--\":2:14   */\n      revert\n        /* \"contracts/FirstContract.sol\":248:324  function changeNumber(uint256 _num) public {\r... */\n    tag_3:\n      tag_18\n      0x04\n      dup1\n      calldatasize\n      sub\n      dup2\n      add\n      swap1\n      tag_19\n      swap2\n      swap1\n      jump(tag_20)\n    tag_19:\n      tag_21\n      jump\t// in\n    tag_18:\n      stop\n        /* \"contracts/FirstContract.sol\":1068:1159  function getAmmountNames() public view returns (uint){\r... */\n    tag_4:\n      tag_22\n      tag_23\n      jump\t// in\n    tag_22:\n      mload(0x40)\n      tag_24\n      swap2\n      swap1\n      jump(tag_25)\n    tag_24:\n      mload(0x40)\n      dup1\n      swap2\n      sub\n      swap1\n      return\n        /* \"contracts/FirstContract.sol\":946:1060  function getMobileNumber(string memory _name) public view returns (uint){\r... */\n    tag_5:\n      tag_26\n      0x04\n      dup1\n      calldatasize\n      sub\n      dup2\n      add\n      swap1\n      tag_27\n      swap2\n      swap1\n      jump(tag_28)\n    tag_27:\n      tag_29\n      jump\t// in\n    tag_26:\n      mload(0x40)\n      tag_30\n      swap2\n      swap1\n      jump(tag_25)\n    tag_30:\n      mload(0x40)\n      dup1\n      swap2\n      sub\n      swap1\n      return\n        /* \"contracts/FirstContract.sol\":426:531  function getNumberMultiplied(uint _num) public view returns (uint){\r... */\n    tag_6:\n      tag_31\n      0x04\n      dup1\n      calldatasize\n      sub\n      dup2\n      add\n      swap1\n      tag_32\n      swap2\n      swap1\n      jump(tag_20)\n    tag_32:\n      tag_33\n      jump\t// in\n    tag_31:\n      mload(0x40)\n      tag_34\n      swap2\n      swap1\n      jump(tag_25)\n    tag_34:\n      mload(0x40)\n      dup1\n      swap2\n      sub\n      swap1\n      return\n        /* \"contracts/FirstContract.sol\":168:189  string[] public names */\n    tag_7:\n      tag_35\n      0x04\n      dup1\n      calldatasize\n      sub\n      dup2\n      add\n      swap1\n      tag_36\n      swap2\n      swap1\n      jump(tag_20)\n    tag_36:\n      tag_37\n      jump\t// in\n    tag_35:\n      mload(0x40)\n      tag_38\n      swap2\n      swap1\n      jump(tag_39)\n    tag_38:\n      mload(0x40)\n      dup1\n      swap2\n      sub\n      swap1\n      return\n        /* \"contracts/FirstContract.sol\":636:713  function push(string memory _name) public{\r... */\n    tag_8:\n      tag_40\n      0x04\n      dup1\n      calldatasize\n      sub\n      dup2\n      add\n      swap1\n      tag_41\n      swap2\n      swap1\n      jump(tag_28)\n    tag_41:\n      tag_42\n      jump\t// in\n    tag_40:\n      stop\n        /* \"contracts/FirstContract.sol\":721:819  function getName(uint _id) public view returns (string memory){\r... */\n    tag_9:\n      tag_43\n      0x04\n      dup1\n      calldatasize\n      sub\n      dup2\n      add\n      swap1\n      tag_44\n      swap2\n      swap1\n      jump(tag_20)\n    tag_44:\n      tag_45\n      jump\t// in\n    tag_43:\n      mload(0x40)\n      tag_46\n      swap2\n      swap1\n      jump(tag_39)\n    tag_46:\n      mload(0x40)\n      dup1\n      swap2\n      sub\n      swap1\n      return\n        /* \"contracts/FirstContract.sol\":827:938  function addMobileNumber(string memory _name, uint _mobNum) public{\r... */\n    tag_10:\n      tag_47\n      0x04\n      dup1\n      calldatasize\n      sub\n      dup2\n      add\n      swap1\n      tag_48\n      swap2\n      swap1\n      jump(tag_49)\n    tag_48:\n      tag_50\n      jump\t// in\n    tag_47:\n      stop\n        /* \"contracts/FirstContract.sol\":136:161  uint256 public number = 0 */\n    tag_11:\n      tag_51\n      tag_52\n      jump\t// in\n    tag_51:\n      mload(0x40)\n      tag_53\n      swap2\n      swap1\n      jump(tag_25)\n    tag_53:\n      mload(0x40)\n      dup1\n      swap2\n      sub\n      swap1\n      return\n        /* \"contracts/FirstContract.sol\":196:236  mapping(string => uint) public mobileNum */\n    tag_12:\n      tag_54\n      0x04\n      dup1\n      calldatasize\n      sub\n      dup2\n      add\n      swap1\n      tag_55\n      swap2\n      swap1\n      jump(tag_28)\n    tag_55:\n      tag_56\n      jump\t// in\n    tag_54:\n      mload(0x40)\n      tag_57\n      swap2\n      swap1\n      jump(tag_25)\n    tag_57:\n      mload(0x40)\n      dup1\n      swap2\n      sub\n      swap1\n      return\n        /* \"contracts/FirstContract.sol\":539:628  function addNumbers(uint _num, uint _num1) public{\r... */\n    tag_13:\n      tag_58\n      0x04\n      dup1\n      calldatasize\n      sub\n      dup2\n      add\n      swap1\n      tag_59\n      swap2\n      swap1\n      jump(tag_60)\n    tag_59:\n      tag_61\n      jump\t// in\n    tag_58:\n      stop\n        /* \"contracts/FirstContract.sol\":336:418  function getNumber() public view returns (uint256){\r... */\n    tag_14:\n      tag_62\n      tag_63\n      jump\t// in\n    tag_62:\n      mload(0x40)\n      tag_64\n      swap2\n      swap1\n      jump(tag_25)\n    tag_64:\n      mload(0x40)\n      dup1\n      swap2\n      sub\n      swap1\n      return\n        /* \"contracts/FirstContract.sol\":1167:1462  function getAllNames() public view returns (string memory){\r... */\n    tag_15:\n      tag_65\n      tag_66\n      jump\t// in\n    tag_65:\n      mload(0x40)\n      tag_67\n      swap2\n      swap1\n      jump(tag_39)\n    tag_67:\n      mload(0x40)\n      dup1\n      swap2\n      sub\n      swap1\n      return\n        /* \"contracts/FirstContract.sol\":248:324  function changeNumber(uint256 _num) public {\r... */\n    tag_21:\n        /* \"contracts/FirstContract.sol\":312:316  _num */\n      dup1\n        /* \"contracts/FirstContract.sol\":302:308  number */\n      0x00\n      dup1\n        /* \"contracts/FirstContract.sol\":302:316  number += _num */\n      dup3\n      dup3\n      sload\n      add\n      swap3\n      pop\n      pop\n      dup2\n      swap1\n      sstore\n      pop\n        /* \"contracts/FirstContract.sol\":248:324  function changeNumber(uint256 _num) public {\r... */\n      pop\n      jump\t// out\n        /* \"contracts/FirstContract.sol\":1068:1159  function getAmmountNames() public view returns (uint){\r... */\n    tag_23:\n        /* \"contracts/FirstContract.sol\":1116:1120  uint */\n      0x00\n        /* \"contracts/FirstContract.sol\":1139:1144  names */\n      0x01\n        /* \"contracts/FirstContract.sol\":1139:1151  names.length */\n      dup1\n      sload\n      swap1\n      pop\n        /* \"contracts/FirstContract.sol\":1132:1151  return names.length */\n      swap1\n      pop\n        /* \"contracts/FirstContract.sol\":1068:1159  function getAmmountNames() public view returns (uint){\r... */\n      swap1\n      jump\t// out\n        /* \"contracts/FirstContract.sol\":946:1060  function getMobileNumber(string memory _name) public view returns (uint){\r... */\n    tag_29:\n        /* \"contracts/FirstContract.sol\":1013:1017  uint */\n      0x00\n        /* \"contracts/FirstContract.sol\":1036:1045  mobileNum */\n      0x02\n        /* \"contracts/FirstContract.sol\":1046:1051  _name */\n      dup3\n        /* \"contracts/FirstContract.sol\":1036:1052  mobileNum[_name] */\n      mload(0x40)\n      tag_71\n      swap2\n      swap1\n      jump(tag_72)\n    tag_71:\n      swap1\n      dup2\n      mstore\n      0x20\n      add\n      mload(0x40)\n      dup1\n      swap2\n      sub\n      swap1\n      keccak256\n      sload\n        /* \"contracts/FirstContract.sol\":1029:1052  return mobileNum[_name] */\n      swap1\n      pop\n        /* \"contracts/FirstContract.sol\":946:1060  function getMobileNumber(string memory _name) public view returns (uint){\r... */\n      swap2\n      swap1\n      pop\n      jump\t// out\n        /* \"contracts/FirstContract.sol\":426:531  function getNumberMultiplied(uint _num) public view returns (uint){\r... */\n    tag_33:\n        /* \"contracts/FirstContract.sol\":487:491  uint */\n      0x00\n        /* \"contracts/FirstContract.sol\":519:523  _num */\n      dup2\n        /* \"contracts/FirstContract.sol\":510:516  number */\n      sload(0x00)\n        /* \"contracts/FirstContract.sol\":510:523  number * _num */\n      mul\n        /* \"contracts/FirstContract.sol\":503:523  return number * _num */\n      swap1\n      pop\n        /* \"contracts/FirstContract.sol\":426:531  function getNumberMultiplied(uint _num) public view returns (uint){\r... */\n      swap2\n      swap1\n      pop\n      jump\t// out\n        /* \"contracts/FirstContract.sol\":168:189  string[] public names */\n    tag_37:\n      0x01\n      dup2\n      dup2\n      sload\n      dup2\n      lt\n      tag_74\n      jumpi\n      invalid\n    tag_74:\n      swap1\n      0x00\n      mstore\n      keccak256(0x00, 0x20)\n      add\n      0x00\n      swap2\n      pop\n      swap1\n      pop\n      dup1\n      sload\n      0x01\n      dup2\n      0x01\n      and\n      iszero\n      0x0100\n      mul\n      sub\n      and\n      0x02\n      swap1\n      div\n      dup1\n      0x1f\n      add\n      0x20\n      dup1\n      swap2\n      div\n      mul\n      0x20\n      add\n      mload(0x40)\n      swap1\n      dup2\n      add\n      0x40\n      mstore\n      dup1\n      swap3\n      swap2\n      swap1\n      dup2\n      dup2\n      mstore\n      0x20\n      add\n      dup3\n      dup1\n      sload\n      0x01\n      dup2\n      0x01\n      and\n      iszero\n      0x0100\n      mul\n      sub\n      and\n      0x02\n      swap1\n      div\n      dup1\n      iszero\n      tag_76\n      jumpi\n      dup1\n      0x1f\n      lt\n      tag_77\n      jumpi\n      0x0100\n      dup1\n      dup4\n      sload\n      div\n      mul\n      dup4\n      mstore\n      swap2\n      0x20\n      add\n      swap2\n      jump(tag_76)\n    tag_77:\n      dup3\n      add\n      swap2\n      swap1\n      0x00\n      mstore\n      keccak256(0x00, 0x20)\n      swap1\n    tag_78:\n      dup2\n      sload\n      dup2\n      mstore\n      swap1\n      0x01\n      add\n      swap1\n      0x20\n      add\n      dup1\n      dup4\n      gt\n      tag_78\n      jumpi\n      dup3\n      swap1\n      sub\n      0x1f\n      and\n      dup3\n      add\n      swap2\n    tag_76:\n      pop\n      pop\n      pop\n      pop\n      pop\n      dup2\n      jump\t// out\n        /* \"contracts/FirstContract.sol\":636:713  function push(string memory _name) public{\r... */\n    tag_42:\n        /* \"contracts/FirstContract.sol\":688:693  names */\n      0x01\n        /* \"contracts/FirstContract.sol\":699:704  _name */\n      dup2\n        /* \"contracts/FirstContract.sol\":688:705  names.push(_name) */\n      swap1\n      dup1\n        /* \"--CODEGEN--\":39:40   */\n      0x01\n        /* \"--CODEGEN--\":33:36   */\n      dup2\n        /* \"--CODEGEN--\":27:37   */\n      sload\n        /* \"--CODEGEN--\":23:41   */\n      add\n        /* \"--CODEGEN--\":57:67   */\n      dup1\n        /* \"--CODEGEN--\":52:55   */\n      dup3\n        /* \"--CODEGEN--\":45:68   */\n      sstore\n        /* \"--CODEGEN--\":79:89   */\n      dup1\n        /* \"--CODEGEN--\":72:89   */\n      swap2\n      pop\n        /* \"--CODEGEN--\":0:93   */\n      pop\n        /* \"contracts/FirstContract.sol\":688:705  names.push(_name) */\n      0x01\n      swap1\n      sub\n      swap1\n      0x00\n      mstore\n      keccak256(0x00, 0x20)\n      add\n      0x00\n      swap1\n      swap2\n      swap1\n      swap2\n      swap1\n      swap2\n      pop\n      swap1\n      dup1\n      mload\n      swap1\n      0x20\n      add\n      swap1\n      tag_81\n      swap3\n      swap2\n      swap1\n      tag_82\n      jump\t// in\n    tag_81:\n      pop\n        /* \"contracts/FirstContract.sol\":636:713  function push(string memory _name) public{\r... */\n      pop\n      jump\t// out\n        /* \"contracts/FirstContract.sol\":721:819  function getName(uint _id) public view returns (string memory){\r... */\n    tag_45:\n        /* \"contracts/FirstContract.sol\":769:782  string memory */\n      0x60\n        /* \"contracts/FirstContract.sol\":801:806  names */\n      0x01\n        /* \"contracts/FirstContract.sol\":807:810  _id */\n      dup3\n        /* \"contracts/FirstContract.sol\":801:811  names[_id] */\n      dup2\n      sload\n      dup2\n      lt\n      tag_84\n      jumpi\n      invalid\n    tag_84:\n      swap1\n      0x00\n      mstore\n      keccak256(0x00, 0x20)\n      add\n        /* \"contracts/FirstContract.sol\":794:811  return names[_id] */\n      dup1\n      sload\n      0x01\n      dup2\n      0x01\n      and\n      iszero\n      0x0100\n      mul\n      sub\n      and\n      0x02\n      swap1\n      div\n      dup1\n      0x1f\n      add\n      0x20\n      dup1\n      swap2\n      div\n      mul\n      0x20\n      add\n      mload(0x40)\n      swap1\n      dup2\n      add\n      0x40\n      mstore\n      dup1\n      swap3\n      swap2\n      swap1\n      dup2\n      dup2\n      mstore\n      0x20\n      add\n      dup3\n      dup1\n      sload\n      0x01\n      dup2\n      0x01\n      and\n      iszero\n      0x0100\n      mul\n      sub\n      and\n      0x02\n      swap1\n      div\n      dup1\n      iszero\n      tag_86\n      jumpi\n      dup1\n      0x1f\n      lt\n      tag_87\n      jumpi\n      0x0100\n      dup1\n      dup4\n      sload\n      div\n      mul\n      dup4\n      mstore\n      swap2\n      0x20\n      add\n      swap2\n      jump(tag_86)\n    tag_87:\n      dup3\n      add\n      swap2\n      swap1\n      0x00\n      mstore\n      keccak256(0x00, 0x20)\n      swap1\n    tag_88:\n      dup2\n      sload\n      dup2\n      mstore\n      swap1\n      0x01\n      add\n      swap1\n      0x20\n      add\n      dup1\n      dup4\n      gt\n      tag_88\n      jumpi\n      dup3\n      swap1\n      sub\n      0x1f\n      and\n      dup3\n      add\n      swap2\n    tag_86:\n      pop\n      pop\n      pop\n      pop\n      pop\n      swap1\n      pop\n        /* \"contracts/FirstContract.sol\":721:819  function getName(uint _id) public view returns (string memory){\r... */\n      swap2\n      swap1\n      pop\n      jump\t// out\n        /* \"contracts/FirstContract.sol\":827:938  function addMobileNumber(string memory _name, uint _mobNum) public{\r... */\n    tag_50:\n        /* \"contracts/FirstContract.sol\":923:930  _mobNum */\n      dup1\n        /* \"contracts/FirstContract.sol\":904:913  mobileNum */\n      0x02\n        /* \"contracts/FirstContract.sol\":914:919  _name */\n      dup4\n        /* \"contracts/FirstContract.sol\":904:920  mobileNum[_name] */\n      mload(0x40)\n      tag_90\n      swap2\n      swap1\n      jump(tag_72)\n    tag_90:\n      swap1\n      dup2\n      mstore\n      0x20\n      add\n      mload(0x40)\n      dup1\n      swap2\n      sub\n      swap1\n      keccak256\n        /* \"contracts/FirstContract.sol\":904:930  mobileNum[_name] = _mobNum */\n      dup2\n      swap1\n      sstore\n      pop\n        /* \"contracts/FirstContract.sol\":827:938  function addMobileNumber(string memory _name, uint _mobNum) public{\r... */\n      pop\n      pop\n      jump\t// out\n        /* \"contracts/FirstContract.sol\":136:161  uint256 public number = 0 */\n    tag_52:\n      sload(0x00)\n      dup2\n      jump\t// out\n        /* \"contracts/FirstContract.sol\":196:236  mapping(string => uint) public mobileNum */\n    tag_56:\n      0x02\n      dup2\n        /* \"--CODEGEN--\":28:35   */\n      dup1\n        /* \"--CODEGEN--\":22:36   */\n      mload\n        /* \"--CODEGEN--\":169:173   */\n      0x20\n        /* \"--CODEGEN--\":160:167   */\n      dup2\n        /* \"--CODEGEN--\":156:174   */\n      add\n        /* \"--CODEGEN--\":147:154   */\n      dup3\n        /* \"--CODEGEN--\":143:175   */\n      add\n        /* \"--CODEGEN--\":204:217   */\n      dup1\n        /* \"--CODEGEN--\":198:218   */\n      mload\n        /* \"--CODEGEN--\":246:254   */\n      dup5\n        /* \"--CODEGEN--\":231:244   */\n      dup3\n        /* \"--CODEGEN--\":224:255   */\n      mstore\n        /* \"--CODEGEN--\":316:320   */\n      0x20\n        /* \"--CODEGEN--\":307:314   */\n      dup4\n        /* \"--CODEGEN--\":303:321   */\n      add\n        /* \"--CODEGEN--\":296:300   */\n      0x20\n        /* \"--CODEGEN--\":287:294   */\n      dup6\n        /* \"--CODEGEN--\":283:301   */\n      add\n        /* \"--CODEGEN--\":273:322   */\n      keccak256\n        /* \"--CODEGEN--\":350:359   */\n      dup2\n        /* \"--CODEGEN--\":335:348   */\n      dup4\n        /* \"--CODEGEN--\":328:360   */\n      mstore\n        /* \"--CODEGEN--\":378:382   */\n      dup1\n        /* \"--CODEGEN--\":366:382   */\n      swap6\n      pop\n        /* \"--CODEGEN--\":0:388   */\n      pop\n      pop\n      pop\n      pop\n        /* \"contracts/FirstContract.sol\":196:236  mapping(string => uint) public mobileNum */\n      pop\n      0x00\n      swap2\n      pop\n      swap1\n      pop\n      sload\n      dup2\n      jump\t// out\n        /* \"contracts/FirstContract.sol\":539:628  function addNumbers(uint _num, uint _num1) public{\r... */\n    tag_61:\n        /* \"contracts/FirstContract.sol\":615:620  _num1 */\n      dup1\n        /* \"contracts/FirstContract.sol\":608:612  _num */\n      dup3\n        /* \"contracts/FirstContract.sol\":608:620  _num + _num1 */\n      add\n        /* \"contracts/FirstContract.sol\":599:605  number */\n      0x00\n        /* \"contracts/FirstContract.sol\":599:620  number = _num + _num1 */\n      dup2\n      swap1\n      sstore\n      pop\n        /* \"contracts/FirstContract.sol\":539:628  function addNumbers(uint _num, uint _num1) public{\r... */\n      pop\n      pop\n      jump\t// out\n        /* \"contracts/FirstContract.sol\":336:418  function getNumber() public view returns (uint256){\r... */\n    tag_63:\n        /* \"contracts/FirstContract.sol\":378:385  uint256 */\n      0x00\n        /* \"contracts/FirstContract.sol\":404:410  number */\n      dup1\n      sload\n        /* \"contracts/FirstContract.sol\":397:410  return number */\n      swap1\n      pop\n        /* \"contracts/FirstContract.sol\":336:418  function getNumber() public view returns (uint256){\r... */\n      swap1\n      jump\t// out\n        /* \"contracts/FirstContract.sol\":1167:1462  function getAllNames() public view returns (string memory){\r... */\n    tag_66:\n        /* \"contracts/FirstContract.sol\":1211:1224  string memory */\n      0x60\n        /* \"contracts/FirstContract.sol\":1236:1244  uint _id */\n      0x00\n        /* \"contracts/FirstContract.sol\":1247:1264  getAmmountNames() */\n      tag_94\n        /* \"contracts/FirstContract.sol\":1247:1262  getAmmountNames */\n      tag_23\n        /* \"contracts/FirstContract.sol\":1247:1264  getAmmountNames() */\n      jump\t// in\n    tag_94:\n        /* \"contracts/FirstContract.sol\":1236:1264  uint _id = getAmmountNames() */\n      swap1\n      pop\n        /* \"contracts/FirstContract.sol\":1275:1297  string memory allNames */\n      0x60\n        /* \"contracts/FirstContract.sol\":1312:1318  uint i */\n      0x00\n        /* \"contracts/FirstContract.sol\":1321:1322  0 */\n      dup1\n        /* \"contracts/FirstContract.sol\":1312:1322  uint i = 0 */\n      swap1\n      pop\n        /* \"contracts/FirstContract.sol\":1308:1429  for(uint i = 0; i == _id; i++){\r... */\n    tag_95:\n        /* \"contracts/FirstContract.sol\":1329:1332  _id */\n      dup3\n        /* \"contracts/FirstContract.sol\":1324:1325  i */\n      dup2\n        /* \"contracts/FirstContract.sol\":1324:1332  i == _id */\n      eq\n        /* \"contracts/FirstContract.sol\":1308:1429  for(uint i = 0; i == _id; i++){\r... */\n      iszero\n      tag_96\n      jumpi\n        /* \"contracts/FirstContract.sol\":1388:1396  allNames */\n      dup2\n        /* \"contracts/FirstContract.sol\":1403:1415  getName(_id) */\n      tag_98\n        /* \"contracts/FirstContract.sol\":1411:1414  _id */\n      dup5\n        /* \"contracts/FirstContract.sol\":1403:1410  getName */\n      tag_45\n        /* \"contracts/FirstContract.sol\":1403:1415  getName(_id) */\n      jump\t// in\n    tag_98:\n        /* \"contracts/FirstContract.sol\":1371:1416  abi.encodePacked(allNames,\", \", getName(_id)) */\n      add(0x20, mload(0x40))\n      tag_99\n      swap3\n      swap2\n      swap1\n      jump(tag_100)\n    tag_99:\n      mload(0x40)\n        /* \"--CODEGEN--\":49:53   */\n      0x20\n        /* \"--CODEGEN--\":39:46   */\n      dup2\n        /* \"--CODEGEN--\":30:37   */\n      dup4\n        /* \"--CODEGEN--\":26:47   */\n      sub\n        /* \"--CODEGEN--\":22:54   */\n      sub\n        /* \"--CODEGEN--\":13:20   */\n      dup2\n        /* \"--CODEGEN--\":6:55   */\n      mstore\n        /* \"contracts/FirstContract.sol\":1371:1416  abi.encodePacked(allNames,\", \", getName(_id)) */\n      swap1\n      0x40\n      mstore\n        /* \"contracts/FirstContract.sol\":1353:1417  allNames = string(abi.encodePacked(allNames,\", \", getName(_id))) */\n      swap2\n      pop\n        /* \"contracts/FirstContract.sol\":1334:1337  i++ */\n      dup1\n      dup1\n      0x01\n      add\n      swap2\n      pop\n      pop\n        /* \"contracts/FirstContract.sol\":1308:1429  for(uint i = 0; i == _id; i++){\r... */\n      jump(tag_95)\n    tag_96:\n      pop\n        /* \"contracts/FirstContract.sol\":1446:1454  allNames */\n      dup1\n        /* \"contracts/FirstContract.sol\":1439:1454  return allNames */\n      swap3\n      pop\n      pop\n      pop\n        /* \"contracts/FirstContract.sol\":1167:1462  function getAllNames() public view returns (string memory){\r... */\n      swap1\n      jump\t// out\n        /* \"contracts/FirstContract.sol\":101:1465  contract MyFirstContract {\r... */\n    tag_82:\n      dup3\n      dup1\n      sload\n      0x01\n      dup2\n      0x01\n      and\n      iszero\n      0x0100\n      mul\n      sub\n      and\n      0x02\n      swap1\n      div\n      swap1\n      0x00\n      mstore\n      keccak256(0x00, 0x20)\n      swap1\n      0x1f\n      add\n      0x20\n      swap1\n      div\n      dup2\n      add\n      swap3\n      dup3\n      0x1f\n      lt\n      tag_102\n      jumpi\n      dup1\n      mload\n      not(0xff)\n      and\n      dup4\n      dup1\n      add\n      or\n      dup6\n      sstore\n      jump(tag_101)\n    tag_102:\n      dup3\n      dup1\n      add\n      0x01\n      add\n      dup6\n      sstore\n      dup3\n      iszero\n      tag_101\n      jumpi\n      swap2\n      dup3\n      add\n    tag_103:\n      dup3\n      dup2\n      gt\n      iszero\n      tag_104\n      jumpi\n      dup3\n      mload\n      dup3\n      sstore\n      swap2\n      0x20\n      add\n      swap2\n      swap1\n      0x01\n      add\n      swap1\n      jump(tag_103)\n    tag_104:\n    tag_101:\n      pop\n      swap1\n      pop\n      tag_105\n      swap2\n      swap1\n      tag_106\n      jump\t// in\n    tag_105:\n      pop\n      swap1\n      jump\t// out\n    tag_106:\n      tag_107\n      swap2\n      swap1\n    tag_108:\n      dup1\n      dup3\n      gt\n      iszero\n      tag_109\n      jumpi\n      0x00\n      dup2\n      0x00\n      swap1\n      sstore\n      pop\n      0x01\n      add\n      jump(tag_108)\n    tag_109:\n      pop\n      swap1\n      jump\n    tag_107:\n      swap1\n      jump\t// out\n        /* \"--CODEGEN--\":6:448   */\n    tag_111:\n      0x00\n        /* \"--CODEGEN--\":108:111   */\n      dup3\n        /* \"--CODEGEN--\":101:105   */\n      0x1f\n        /* \"--CODEGEN--\":93:99   */\n      dup4\n        /* \"--CODEGEN--\":89:106   */\n      add\n        /* \"--CODEGEN--\":85:112   */\n      slt\n        /* \"--CODEGEN--\":75:77   */\n      tag_113\n      jumpi\n        /* \"--CODEGEN--\":126:127   */\n      0x00\n        /* \"--CODEGEN--\":123:124   */\n      dup1\n        /* \"--CODEGEN--\":116:128   */\n      revert\n        /* \"--CODEGEN--\":75:77   */\n    tag_113:\n        /* \"--CODEGEN--\":163:169   */\n      dup2\n        /* \"--CODEGEN--\":150:170   */\n      calldataload\n        /* \"--CODEGEN--\":185:250   */\n      tag_114\n        /* \"--CODEGEN--\":200:249   */\n      tag_115\n        /* \"--CODEGEN--\":242:248   */\n      dup3\n        /* \"--CODEGEN--\":200:249   */\n      jump(tag_116)\n    tag_115:\n        /* \"--CODEGEN--\":185:250   */\n      jump(tag_117)\n    tag_114:\n        /* \"--CODEGEN--\":176:250   */\n      swap2\n      pop\n        /* \"--CODEGEN--\":270:276   */\n      dup1\n        /* \"--CODEGEN--\":263:268   */\n      dup3\n        /* \"--CODEGEN--\":256:277   */\n      mstore\n        /* \"--CODEGEN--\":306:310   */\n      0x20\n        /* \"--CODEGEN--\":298:304   */\n      dup4\n        /* \"--CODEGEN--\":294:311   */\n      add\n        /* \"--CODEGEN--\":339:343   */\n      0x20\n        /* \"--CODEGEN--\":332:337   */\n      dup4\n        /* \"--CODEGEN--\":328:344   */\n      add\n        /* \"--CODEGEN--\":374:377   */\n      dup6\n        /* \"--CODEGEN--\":365:371   */\n      dup4\n        /* \"--CODEGEN--\":360:363   */\n      dup4\n        /* \"--CODEGEN--\":356:372   */\n      add\n        /* \"--CODEGEN--\":353:378   */\n      gt\n        /* \"--CODEGEN--\":350:352   */\n      iszero\n      tag_118\n      jumpi\n        /* \"--CODEGEN--\":391:392   */\n      0x00\n        /* \"--CODEGEN--\":388:389   */\n      dup1\n        /* \"--CODEGEN--\":381:393   */\n      revert\n        /* \"--CODEGEN--\":350:352   */\n    tag_118:\n        /* \"--CODEGEN--\":401:442   */\n      tag_119\n        /* \"--CODEGEN--\":435:441   */\n      dup4\n        /* \"--CODEGEN--\":430:433   */\n      dup3\n        /* \"--CODEGEN--\":425:428   */\n      dup5\n        /* \"--CODEGEN--\":401:442   */\n      jump(tag_120)\n    tag_119:\n        /* \"--CODEGEN--\":68:448   */\n      pop\n      pop\n      pop\n      swap3\n      swap2\n      pop\n      pop\n      jump\n        /* \"--CODEGEN--\":456:586   */\n    tag_121:\n      0x00\n        /* \"--CODEGEN--\":536:542   */\n      dup2\n        /* \"--CODEGEN--\":523:543   */\n      calldataload\n        /* \"--CODEGEN--\":514:543   */\n      swap1\n      pop\n        /* \"--CODEGEN--\":548:581   */\n      tag_123\n        /* \"--CODEGEN--\":575:580   */\n      dup2\n        /* \"--CODEGEN--\":548:581   */\n      jump(tag_124)\n    tag_123:\n        /* \"--CODEGEN--\":508:586   */\n      swap3\n      swap2\n      pop\n      pop\n      jump\n        /* \"--CODEGEN--\":593:940   */\n    tag_28:\n      0x00\n        /* \"--CODEGEN--\":707:709   */\n      0x20\n        /* \"--CODEGEN--\":695:704   */\n      dup3\n        /* \"--CODEGEN--\":686:693   */\n      dup5\n        /* \"--CODEGEN--\":682:705   */\n      sub\n        /* \"--CODEGEN--\":678:710   */\n      slt\n        /* \"--CODEGEN--\":675:677   */\n      iszero\n      tag_126\n      jumpi\n        /* \"--CODEGEN--\":723:724   */\n      0x00\n        /* \"--CODEGEN--\":720:721   */\n      dup1\n        /* \"--CODEGEN--\":713:725   */\n      revert\n        /* \"--CODEGEN--\":675:677   */\n    tag_126:\n        /* \"--CODEGEN--\":786:787   */\n      0x00\n        /* \"--CODEGEN--\":775:784   */\n      dup3\n        /* \"--CODEGEN--\":771:788   */\n      add\n        /* \"--CODEGEN--\":758:789   */\n      calldataload\n        /* \"--CODEGEN--\":809:827   */\n      0xffffffffffffffff\n        /* \"--CODEGEN--\":801:807   */\n      dup2\n        /* \"--CODEGEN--\":798:828   */\n      gt\n        /* \"--CODEGEN--\":795:797   */\n      iszero\n      tag_127\n      jumpi\n        /* \"--CODEGEN--\":841:842   */\n      0x00\n        /* \"--CODEGEN--\":838:839   */\n      dup1\n        /* \"--CODEGEN--\":831:843   */\n      revert\n        /* \"--CODEGEN--\":795:797   */\n    tag_127:\n        /* \"--CODEGEN--\":861:924   */\n      tag_128\n        /* \"--CODEGEN--\":916:923   */\n      dup5\n        /* \"--CODEGEN--\":907:913   */\n      dup3\n        /* \"--CODEGEN--\":896:905   */\n      dup6\n        /* \"--CODEGEN--\":892:914   */\n      add\n        /* \"--CODEGEN--\":861:924   */\n      jump(tag_111)\n    tag_128:\n        /* \"--CODEGEN--\":851:924   */\n      swap2\n      pop\n        /* \"--CODEGEN--\":737:930   */\n      pop\n        /* \"--CODEGEN--\":669:940   */\n      swap3\n      swap2\n      pop\n      pop\n      jump\n        /* \"--CODEGEN--\":947:1419   */\n    tag_49:\n      0x00\n      dup1\n        /* \"--CODEGEN--\":1078:1080   */\n      0x40\n        /* \"--CODEGEN--\":1066:1075   */\n      dup4\n        /* \"--CODEGEN--\":1057:1064   */\n      dup6\n        /* \"--CODEGEN--\":1053:1076   */\n      sub\n        /* \"--CODEGEN--\":1049:1081   */\n      slt\n        /* \"--CODEGEN--\":1046:1048   */\n      iszero\n      tag_130\n      jumpi\n        /* \"--CODEGEN--\":1094:1095   */\n      0x00\n        /* \"--CODEGEN--\":1091:1092   */\n      dup1\n        /* \"--CODEGEN--\":1084:1096   */\n      revert\n        /* \"--CODEGEN--\":1046:1048   */\n    tag_130:\n        /* \"--CODEGEN--\":1157:1158   */\n      0x00\n        /* \"--CODEGEN--\":1146:1155   */\n      dup4\n        /* \"--CODEGEN--\":1142:1159   */\n      add\n        /* \"--CODEGEN--\":1129:1160   */\n      calldataload\n        /* \"--CODEGEN--\":1180:1198   */\n      0xffffffffffffffff\n        /* \"--CODEGEN--\":1172:1178   */\n      dup2\n        /* \"--CODEGEN--\":1169:1199   */\n      gt\n        /* \"--CODEGEN--\":1166:1168   */\n      iszero\n      tag_131\n      jumpi\n        /* \"--CODEGEN--\":1212:1213   */\n      0x00\n        /* \"--CODEGEN--\":1209:1210   */\n      dup1\n        /* \"--CODEGEN--\":1202:1214   */\n      revert\n        /* \"--CODEGEN--\":1166:1168   */\n    tag_131:\n        /* \"--CODEGEN--\":1232:1295   */\n      tag_132\n        /* \"--CODEGEN--\":1287:1294   */\n      dup6\n        /* \"--CODEGEN--\":1278:1284   */\n      dup3\n        /* \"--CODEGEN--\":1267:1276   */\n      dup7\n        /* \"--CODEGEN--\":1263:1285   */\n      add\n        /* \"--CODEGEN--\":1232:1295   */\n      jump(tag_111)\n    tag_132:\n        /* \"--CODEGEN--\":1222:1295   */\n      swap3\n      pop\n        /* \"--CODEGEN--\":1108:1301   */\n      pop\n        /* \"--CODEGEN--\":1332:1334   */\n      0x20\n        /* \"--CODEGEN--\":1350:1403   */\n      tag_133\n        /* \"--CODEGEN--\":1395:1402   */\n      dup6\n        /* \"--CODEGEN--\":1386:1392   */\n      dup3\n        /* \"--CODEGEN--\":1375:1384   */\n      dup7\n        /* \"--CODEGEN--\":1371:1393   */\n      add\n        /* \"--CODEGEN--\":1350:1403   */\n      jump(tag_121)\n    tag_133:\n        /* \"--CODEGEN--\":1340:1403   */\n      swap2\n      pop\n        /* \"--CODEGEN--\":1311:1409   */\n      pop\n        /* \"--CODEGEN--\":1040:1419   */\n      swap3\n      pop\n      swap3\n      swap1\n      pop\n      jump\n        /* \"--CODEGEN--\":1426:1667   */\n    tag_20:\n      0x00\n        /* \"--CODEGEN--\":1530:1532   */\n      0x20\n        /* \"--CODEGEN--\":1518:1527   */\n      dup3\n        /* \"--CODEGEN--\":1509:1516   */\n      dup5\n        /* \"--CODEGEN--\":1505:1528   */\n      sub\n        /* \"--CODEGEN--\":1501:1533   */\n      slt\n        /* \"--CODEGEN--\":1498:1500   */\n      iszero\n      tag_135\n      jumpi\n        /* \"--CODEGEN--\":1546:1547   */\n      0x00\n        /* \"--CODEGEN--\":1543:1544   */\n      dup1\n        /* \"--CODEGEN--\":1536:1548   */\n      revert\n        /* \"--CODEGEN--\":1498:1500   */\n    tag_135:\n        /* \"--CODEGEN--\":1581:1582   */\n      0x00\n        /* \"--CODEGEN--\":1598:1651   */\n      tag_136\n        /* \"--CODEGEN--\":1643:1650   */\n      dup5\n        /* \"--CODEGEN--\":1634:1640   */\n      dup3\n        /* \"--CODEGEN--\":1623:1632   */\n      dup6\n        /* \"--CODEGEN--\":1619:1641   */\n      add\n        /* \"--CODEGEN--\":1598:1651   */\n      jump(tag_121)\n    tag_136:\n        /* \"--CODEGEN--\":1588:1651   */\n      swap2\n      pop\n        /* \"--CODEGEN--\":1560:1657   */\n      pop\n        /* \"--CODEGEN--\":1492:1667   */\n      swap3\n      swap2\n      pop\n      pop\n      jump\n        /* \"--CODEGEN--\":1674:2040   */\n    tag_60:\n      0x00\n      dup1\n        /* \"--CODEGEN--\":1795:1797   */\n      0x40\n        /* \"--CODEGEN--\":1783:1792   */\n      dup4\n        /* \"--CODEGEN--\":1774:1781   */\n      dup6\n        /* \"--CODEGEN--\":1770:1793   */\n      sub\n        /* \"--CODEGEN--\":1766:1798   */\n      slt\n        /* \"--CODEGEN--\":1763:1765   */\n      iszero\n      tag_138\n      jumpi\n        /* \"--CODEGEN--\":1811:1812   */\n      0x00\n        /* \"--CODEGEN--\":1808:1809   */\n      dup1\n        /* \"--CODEGEN--\":1801:1813   */\n      revert\n        /* \"--CODEGEN--\":1763:1765   */\n    tag_138:\n        /* \"--CODEGEN--\":1846:1847   */\n      0x00\n        /* \"--CODEGEN--\":1863:1916   */\n      tag_139\n        /* \"--CODEGEN--\":1908:1915   */\n      dup6\n        /* \"--CODEGEN--\":1899:1905   */\n      dup3\n        /* \"--CODEGEN--\":1888:1897   */\n      dup7\n        /* \"--CODEGEN--\":1884:1906   */\n      add\n        /* \"--CODEGEN--\":1863:1916   */\n      jump(tag_121)\n    tag_139:\n        /* \"--CODEGEN--\":1853:1916   */\n      swap3\n      pop\n        /* \"--CODEGEN--\":1825:1922   */\n      pop\n        /* \"--CODEGEN--\":1953:1955   */\n      0x20\n        /* \"--CODEGEN--\":1971:2024   */\n      tag_140\n        /* \"--CODEGEN--\":2016:2023   */\n      dup6\n        /* \"--CODEGEN--\":2007:2013   */\n      dup3\n        /* \"--CODEGEN--\":1996:2005   */\n      dup7\n        /* \"--CODEGEN--\":1992:2014   */\n      add\n        /* \"--CODEGEN--\":1971:2024   */\n      jump(tag_121)\n    tag_140:\n        /* \"--CODEGEN--\":1961:2024   */\n      swap2\n      pop\n        /* \"--CODEGEN--\":1932:2030   */\n      pop\n        /* \"--CODEGEN--\":1757:2040   */\n      swap3\n      pop\n      swap3\n      swap1\n      pop\n      jump\n        /* \"--CODEGEN--\":2047:2394   */\n    tag_141:\n      0x00\n        /* \"--CODEGEN--\":2159:2198   */\n      tag_143\n        /* \"--CODEGEN--\":2192:2197   */\n      dup3\n        /* \"--CODEGEN--\":2159:2198   */\n      jump(tag_144)\n    tag_143:\n        /* \"--CODEGEN--\":2210:2281   */\n      tag_145\n        /* \"--CODEGEN--\":2274:2280   */\n      dup2\n        /* \"--CODEGEN--\":2269:2272   */\n      dup6\n        /* \"--CODEGEN--\":2210:2281   */\n      jump(tag_146)\n    tag_145:\n        /* \"--CODEGEN--\":2203:2281   */\n      swap4\n      pop\n        /* \"--CODEGEN--\":2286:2338   */\n      tag_147\n        /* \"--CODEGEN--\":2331:2337   */\n      dup2\n        /* \"--CODEGEN--\":2326:2329   */\n      dup6\n        /* \"--CODEGEN--\":2319:2323   */\n      0x20\n        /* \"--CODEGEN--\":2312:2317   */\n      dup7\n        /* \"--CODEGEN--\":2308:2324   */\n      add\n        /* \"--CODEGEN--\":2286:2338   */\n      jump(tag_148)\n    tag_147:\n        /* \"--CODEGEN--\":2359:2388   */\n      tag_149\n        /* \"--CODEGEN--\":2381:2387   */\n      dup2\n        /* \"--CODEGEN--\":2359:2388   */\n      jump(tag_150)\n    tag_149:\n        /* \"--CODEGEN--\":2354:2357   */\n      dup5\n        /* \"--CODEGEN--\":2350:2389   */\n      add\n        /* \"--CODEGEN--\":2343:2389   */\n      swap2\n      pop\n        /* \"--CODEGEN--\":2139:2394   */\n      pop\n      swap3\n      swap2\n      pop\n      pop\n      jump\n        /* \"--CODEGEN--\":2401:2761   */\n    tag_151:\n      0x00\n        /* \"--CODEGEN--\":2531:2570   */\n      tag_153\n        /* \"--CODEGEN--\":2564:2569   */\n      dup3\n        /* \"--CODEGEN--\":2531:2570   */\n      jump(tag_144)\n    tag_153:\n        /* \"--CODEGEN--\":2582:2671   */\n      tag_154\n        /* \"--CODEGEN--\":2664:2670   */\n      dup2\n        /* \"--CODEGEN--\":2659:2662   */\n      dup6\n        /* \"--CODEGEN--\":2582:2671   */\n      jump(tag_155)\n    tag_154:\n        /* \"--CODEGEN--\":2575:2671   */\n      swap4\n      pop\n        /* \"--CODEGEN--\":2676:2728   */\n      tag_156\n        /* \"--CODEGEN--\":2721:2727   */\n      dup2\n        /* \"--CODEGEN--\":2716:2719   */\n      dup6\n        /* \"--CODEGEN--\":2709:2713   */\n      0x20\n        /* \"--CODEGEN--\":2702:2707   */\n      dup7\n        /* \"--CODEGEN--\":2698:2714   */\n      add\n        /* \"--CODEGEN--\":2676:2728   */\n      jump(tag_148)\n    tag_156:\n        /* \"--CODEGEN--\":2749:2755   */\n      dup1\n        /* \"--CODEGEN--\":2744:2747   */\n      dup5\n        /* \"--CODEGEN--\":2740:2756   */\n      add\n        /* \"--CODEGEN--\":2733:2756   */\n      swap2\n      pop\n        /* \"--CODEGEN--\":2511:2761   */\n      pop\n      swap3\n      swap2\n      pop\n      pop\n      jump\n        /* \"--CODEGEN--\":2769:3105   */\n    tag_157:\n      0x00\n        /* \"--CODEGEN--\":2947:3031   */\n      tag_159\n        /* \"--CODEGEN--\":3029:3030   */\n      0x02\n        /* \"--CODEGEN--\":3024:3027   */\n      dup4\n        /* \"--CODEGEN--\":2947:3031   */\n      jump(tag_155)\n    tag_159:\n        /* \"--CODEGEN--\":2940:3031   */\n      swap2\n      pop\n        /* \"--CODEGEN--\":3064:3068   */\n      0x2c20000000000000000000000000000000000000000000000000000000000000\n        /* \"--CODEGEN--\":3060:3061   */\n      0x00\n        /* \"--CODEGEN--\":3055:3058   */\n      dup4\n        /* \"--CODEGEN--\":3051:3062   */\n      add\n        /* \"--CODEGEN--\":3044:3069   */\n      mstore\n        /* \"--CODEGEN--\":3097:3098   */\n      0x02\n        /* \"--CODEGEN--\":3092:3095   */\n      dup3\n        /* \"--CODEGEN--\":3088:3099   */\n      add\n        /* \"--CODEGEN--\":3081:3099   */\n      swap1\n      pop\n        /* \"--CODEGEN--\":2933:3105   */\n      swap2\n      swap1\n      pop\n      jump\n        /* \"--CODEGEN--\":3113:3226   */\n    tag_160:\n        /* \"--CODEGEN--\":3196:3220   */\n      tag_162\n        /* \"--CODEGEN--\":3214:3219   */\n      dup2\n        /* \"--CODEGEN--\":3196:3220   */\n      jump(tag_163)\n    tag_162:\n        /* \"--CODEGEN--\":3191:3194   */\n      dup3\n        /* \"--CODEGEN--\":3184:3221   */\n      mstore\n        /* \"--CODEGEN--\":3178:3226   */\n      pop\n      pop\n      jump\n        /* \"--CODEGEN--\":3233:3499   */\n    tag_72:\n      0x00\n        /* \"--CODEGEN--\":3379:3474   */\n      tag_165\n        /* \"--CODEGEN--\":3470:3473   */\n      dup3\n        /* \"--CODEGEN--\":3461:3467   */\n      dup5\n        /* \"--CODEGEN--\":3379:3474   */\n      jump(tag_151)\n    tag_165:\n        /* \"--CODEGEN--\":3372:3474   */\n      swap2\n      pop\n        /* \"--CODEGEN--\":3491:3494   */\n      dup2\n        /* \"--CODEGEN--\":3484:3494   */\n      swap1\n      pop\n        /* \"--CODEGEN--\":3360:3499   */\n      swap3\n      swap2\n      pop\n      pop\n      jump\n        /* \"--CODEGEN--\":3506:4200   */\n    tag_100:\n      0x00\n        /* \"--CODEGEN--\":3801:3896   */\n      tag_167\n        /* \"--CODEGEN--\":3892:3895   */\n      dup3\n        /* \"--CODEGEN--\":3883:3889   */\n      dup6\n        /* \"--CODEGEN--\":3801:3896   */\n      jump(tag_151)\n    tag_167:\n        /* \"--CODEGEN--\":3794:3896   */\n      swap2\n      pop\n        /* \"--CODEGEN--\":3914:4062   */\n      tag_168\n        /* \"--CODEGEN--\":4058:4061   */\n      dup3\n        /* \"--CODEGEN--\":3914:4062   */\n      jump(tag_157)\n    tag_168:\n        /* \"--CODEGEN--\":3907:4062   */\n      swap2\n      pop\n        /* \"--CODEGEN--\":4080:4175   */\n      tag_169\n        /* \"--CODEGEN--\":4171:4174   */\n      dup3\n        /* \"--CODEGEN--\":4162:4168   */\n      dup5\n        /* \"--CODEGEN--\":4080:4175   */\n      jump(tag_151)\n    tag_169:\n        /* \"--CODEGEN--\":4073:4175   */\n      swap2\n      pop\n        /* \"--CODEGEN--\":4192:4195   */\n      dup2\n        /* \"--CODEGEN--\":4185:4195   */\n      swap1\n      pop\n        /* \"--CODEGEN--\":3782:4200   */\n      swap4\n      swap3\n      pop\n      pop\n      pop\n      jump\n        /* \"--CODEGEN--\":4207:4508   */\n    tag_39:\n      0x00\n        /* \"--CODEGEN--\":4345:4347   */\n      0x20\n        /* \"--CODEGEN--\":4334:4343   */\n      dup3\n        /* \"--CODEGEN--\":4330:4348   */\n      add\n        /* \"--CODEGEN--\":4322:4348   */\n      swap1\n      pop\n        /* \"--CODEGEN--\":4395:4404   */\n      dup2\n        /* \"--CODEGEN--\":4389:4393   */\n      dup2\n        /* \"--CODEGEN--\":4385:4405   */\n      sub\n        /* \"--CODEGEN--\":4381:4382   */\n      0x00\n        /* \"--CODEGEN--\":4370:4379   */\n      dup4\n        /* \"--CODEGEN--\":4366:4383   */\n      add\n        /* \"--CODEGEN--\":4359:4406   */\n      mstore\n        /* \"--CODEGEN--\":4420:4498   */\n      tag_171\n        /* \"--CODEGEN--\":4493:4497   */\n      dup2\n        /* \"--CODEGEN--\":4484:4490   */\n      dup5\n        /* \"--CODEGEN--\":4420:4498   */\n      jump(tag_141)\n    tag_171:\n        /* \"--CODEGEN--\":4412:4498   */\n      swap1\n      pop\n        /* \"--CODEGEN--\":4316:4508   */\n      swap3\n      swap2\n      pop\n      pop\n      jump\n        /* \"--CODEGEN--\":4515:4728   */\n    tag_25:\n      0x00\n        /* \"--CODEGEN--\":4633:4635   */\n      0x20\n        /* \"--CODEGEN--\":4622:4631   */\n      dup3\n        /* \"--CODEGEN--\":4618:4636   */\n      add\n        /* \"--CODEGEN--\":4610:4636   */\n      swap1\n      pop\n        /* \"--CODEGEN--\":4647:4718   */\n      tag_173\n        /* \"--CODEGEN--\":4715:4716   */\n      0x00\n        /* \"--CODEGEN--\":4704:4713   */\n      dup4\n        /* \"--CODEGEN--\":4700:4717   */\n      add\n        /* \"--CODEGEN--\":4691:4697   */\n      dup5\n        /* \"--CODEGEN--\":4647:4718   */\n      jump(tag_160)\n    tag_173:\n        /* \"--CODEGEN--\":4604:4728   */\n      swap3\n      swap2\n      pop\n      pop\n      jump\n        /* \"--CODEGEN--\":4735:4991   */\n    tag_117:\n      0x00\n        /* \"--CODEGEN--\":4797:4799   */\n      0x40\n        /* \"--CODEGEN--\":4791:4800   */\n      mload\n        /* \"--CODEGEN--\":4781:4800   */\n      swap1\n      pop\n        /* \"--CODEGEN--\":4835:4839   */\n      dup2\n        /* \"--CODEGEN--\":4827:4833   */\n      dup2\n        /* \"--CODEGEN--\":4823:4840   */\n      add\n        /* \"--CODEGEN--\":4934:4940   */\n      dup2\n        /* \"--CODEGEN--\":4922:4932   */\n      dup2\n        /* \"--CODEGEN--\":4919:4941   */\n      lt\n        /* \"--CODEGEN--\":4898:4916   */\n      0xffffffffffffffff\n        /* \"--CODEGEN--\":4886:4896   */\n      dup3\n        /* \"--CODEGEN--\":4883:4917   */\n      gt\n        /* \"--CODEGEN--\":4880:4942   */\n      or\n        /* \"--CODEGEN--\":4877:4879   */\n      iszero\n      tag_175\n      jumpi\n        /* \"--CODEGEN--\":4955:4956   */\n      0x00\n        /* \"--CODEGEN--\":4952:4953   */\n      dup1\n        /* \"--CODEGEN--\":4945:4957   */\n      revert\n        /* \"--CODEGEN--\":4877:4879   */\n    tag_175:\n        /* \"--CODEGEN--\":4975:4985   */\n      dup1\n        /* \"--CODEGEN--\":4971:4973   */\n      0x40\n        /* \"--CODEGEN--\":4964:4986   */\n      mstore\n        /* \"--CODEGEN--\":4775:4991   */\n      pop\n      swap2\n      swap1\n      pop\n      jump\n        /* \"--CODEGEN--\":4998:5320   */\n    tag_116:\n      0x00\n        /* \"--CODEGEN--\":5142:5160   */\n      0xffffffffffffffff\n        /* \"--CODEGEN--\":5134:5140   */\n      dup3\n        /* \"--CODEGEN--\":5131:5161   */\n      gt\n        /* \"--CODEGEN--\":5128:5130   */\n      iszero\n      tag_177\n      jumpi\n        /* \"--CODEGEN--\":5174:5175   */\n      0x00\n        /* \"--CODEGEN--\":5171:5172   */\n      dup1\n        /* \"--CODEGEN--\":5164:5176   */\n      revert\n        /* \"--CODEGEN--\":5128:5130   */\n    tag_177:\n        /* \"--CODEGEN--\":5241:5245   */\n      0x1f\n        /* \"--CODEGEN--\":5237:5246   */\n      not\n        /* \"--CODEGEN--\":5230:5234   */\n      0x1f\n        /* \"--CODEGEN--\":5222:5228   */\n      dup4\n        /* \"--CODEGEN--\":5218:5235   */\n      add\n        /* \"--CODEGEN--\":5214:5247   */\n      and\n        /* \"--CODEGEN--\":5206:5247   */\n      swap1\n      pop\n        /* \"--CODEGEN--\":5305:5309   */\n      0x20\n        /* \"--CODEGEN--\":5299:5303   */\n      dup2\n        /* \"--CODEGEN--\":5295:5310   */\n      add\n        /* \"--CODEGEN--\":5287:5310   */\n      swap1\n      pop\n        /* \"--CODEGEN--\":5065:5320   */\n      swap2\n      swap1\n      pop\n      jump\n        /* \"--CODEGEN--\":5327:5449   */\n    tag_144:\n      0x00\n        /* \"--CODEGEN--\":5421:5426   */\n      dup2\n        /* \"--CODEGEN--\":5415:5427   */\n      mload\n        /* \"--CODEGEN--\":5405:5427   */\n      swap1\n      pop\n        /* \"--CODEGEN--\":5386:5449   */\n      swap2\n      swap1\n      pop\n      jump\n        /* \"--CODEGEN--\":5457:5620   */\n    tag_146:\n      0x00\n        /* \"--CODEGEN--\":5572:5578   */\n      dup3\n        /* \"--CODEGEN--\":5567:5570   */\n      dup3\n        /* \"--CODEGEN--\":5560:5579   */\n      mstore\n        /* \"--CODEGEN--\":5609:5613   */\n      0x20\n        /* \"--CODEGEN--\":5604:5607   */\n      dup3\n        /* \"--CODEGEN--\":5600:5614   */\n      add\n        /* \"--CODEGEN--\":5585:5614   */\n      swap1\n      pop\n        /* \"--CODEGEN--\":5553:5620   */\n      swap3\n      swap2\n      pop\n      pop\n      jump\n        /* \"--CODEGEN--\":5629:5774   */\n    tag_155:\n      0x00\n        /* \"--CODEGEN--\":5765:5768   */\n      dup2\n        /* \"--CODEGEN--\":5750:5768   */\n      swap1\n      pop\n        /* \"--CODEGEN--\":5743:5774   */\n      swap3\n      swap2\n      pop\n      pop\n      jump\n        /* \"--CODEGEN--\":5782:5854   */\n    tag_163:\n      0x00\n        /* \"--CODEGEN--\":5844:5849   */\n      dup2\n        /* \"--CODEGEN--\":5833:5849   */\n      swap1\n      pop\n        /* \"--CODEGEN--\":5827:5854   */\n      swap2\n      swap1\n      pop\n      jump\n        /* \"--CODEGEN--\":5862:6007   */\n    tag_120:\n        /* \"--CODEGEN--\":5943:5949   */\n      dup3\n        /* \"--CODEGEN--\":5938:5941   */\n      dup2\n        /* \"--CODEGEN--\":5933:5936   */\n      dup4\n        /* \"--CODEGEN--\":5920:5950   */\n      calldatacopy\n        /* \"--CODEGEN--\":5999:6000   */\n      0x00\n        /* \"--CODEGEN--\":5990:5996   */\n      dup4\n        /* \"--CODEGEN--\":5985:5988   */\n      dup4\n        /* \"--CODEGEN--\":5981:5997   */\n      add\n        /* \"--CODEGEN--\":5974:6001   */\n      mstore\n        /* \"--CODEGEN--\":5913:6007   */\n      pop\n      pop\n      pop\n      jump\n        /* \"--CODEGEN--\":6016:6284   */\n    tag_148:\n        /* \"--CODEGEN--\":6081:6082   */\n      0x00\n        /* \"--CODEGEN--\":6088:6189   */\n    tag_184:\n        /* \"--CODEGEN--\":6102:6108   */\n      dup4\n        /* \"--CODEGEN--\":6099:6100   */\n      dup2\n        /* \"--CODEGEN--\":6096:6109   */\n      lt\n        /* \"--CODEGEN--\":6088:6189   */\n      iszero\n      tag_186\n      jumpi\n        /* \"--CODEGEN--\":6178:6179   */\n      dup1\n        /* \"--CODEGEN--\":6173:6176   */\n      dup3\n        /* \"--CODEGEN--\":6169:6180   */\n      add\n        /* \"--CODEGEN--\":6163:6181   */\n      mload\n        /* \"--CODEGEN--\":6159:6160   */\n      dup2\n        /* \"--CODEGEN--\":6154:6157   */\n      dup5\n        /* \"--CODEGEN--\":6150:6161   */\n      add\n        /* \"--CODEGEN--\":6143:6182   */\n      mstore\n        /* \"--CODEGEN--\":6124:6126   */\n      0x20\n        /* \"--CODEGEN--\":6121:6122   */\n      dup2\n        /* \"--CODEGEN--\":6117:6127   */\n      add\n        /* \"--CODEGEN--\":6112:6127   */\n      swap1\n      pop\n        /* \"--CODEGEN--\":6088:6189   */\n      jump(tag_184)\n    tag_186:\n        /* \"--CODEGEN--\":6204:6210   */\n      dup4\n        /* \"--CODEGEN--\":6201:6202   */\n      dup2\n        /* \"--CODEGEN--\":6198:6211   */\n      gt\n        /* \"--CODEGEN--\":6195:6197   */\n      iszero\n      tag_187\n      jumpi\n        /* \"--CODEGEN--\":6269:6270   */\n      0x00\n        /* \"--CODEGEN--\":6260:6266   */\n      dup5\n        /* \"--CODEGEN--\":6255:6258   */\n      dup5\n        /* \"--CODEGEN--\":6251:6267   */\n      add\n        /* \"--CODEGEN--\":6244:6271   */\n      mstore\n        /* \"--CODEGEN--\":6195:6197   */\n    tag_187:\n        /* \"--CODEGEN--\":6065:6284   */\n      pop\n      pop\n      pop\n      pop\n      jump\n        /* \"--CODEGEN--\":6292:6389   */\n    tag_150:\n      0x00\n        /* \"--CODEGEN--\":6380:6382   */\n      0x1f\n        /* \"--CODEGEN--\":6376:6383   */\n      not\n        /* \"--CODEGEN--\":6371:6373   */\n      0x1f\n        /* \"--CODEGEN--\":6364:6369   */\n      dup4\n        /* \"--CODEGEN--\":6360:6374   */\n      add\n        /* \"--CODEGEN--\":6356:6384   */\n      and\n        /* \"--CODEGEN--\":6346:6384   */\n      swap1\n      pop\n        /* \"--CODEGEN--\":6340:6389   */\n      swap2\n      swap1\n      pop\n      jump\n        /* \"--CODEGEN--\":6397:6514   */\n    tag_124:\n        /* \"--CODEGEN--\":6466:6490   */\n      tag_190\n        /* \"--CODEGEN--\":6484:6489   */\n      dup2\n        /* \"--CODEGEN--\":6466:6490   */\n      jump(tag_163)\n    tag_190:\n        /* \"--CODEGEN--\":6459:6464   */\n      dup2\n        /* \"--CODEGEN--\":6456:6491   */\n      eq\n        /* \"--CODEGEN--\":6446:6448   */\n      tag_191\n      jumpi\n        /* \"--CODEGEN--\":6505:6506   */\n      0x00\n        /* \"--CODEGEN--\":6502:6503   */\n      dup1\n        /* \"--CODEGEN--\":6495:6507   */\n      revert\n        /* \"--CODEGEN--\":6446:6448   */\n    tag_191:\n        /* \"--CODEGEN--\":6440:6514   */\n      pop\n      jump\n\n    auxdata: 0xa264697066735822122092dd89140705e77535d6667901d2d85717800a15b25c4cacb02de51367c338e564736f6c63430006070033\n}\n",
				"bytecode": {
					"linkReferences": {},
					"object": "60806040526000805534801561001457600080fd5b506109f1806100246000396000f3fe608060405234801561001057600080fd5b50600436106100cf5760003560e01c80636b8ff5741161008c57806396fa3a811161006657806396fa3a8114610224578063ef9fc50b14610254578063f2c9ecd814610270578063fb825e5f1461028e576100cf565b80636b8ff574146101ba5780637ba1eab3146101ea5780638381f58a14610206576100cf565b806307391dd6146100d457806308ccbc88146100f057806314b3ee681461010e578063160395401461013e5780634622ab031461016e5780634f3d057a1461019e575b600080fd5b6100ee60048036038101906100e99190610726565b6102ac565b005b6100f86102be565b60405161010591906108ac565b60405180910390f35b61012860048036038101906101239190610691565b6102cb565b60405161013591906108ac565b60405180910390f35b61015860048036038101906101539190610726565b6102f3565b60405161016591906108ac565b60405180910390f35b61018860048036038101906101839190610726565b610301565b604051610195919061088a565b60405180910390f35b6101b860048036038101906101b39190610691565b6103ba565b005b6101d460048036038101906101cf9190610726565b6103f9565b6040516101e1919061088a565b60405180910390f35b61020460048036038101906101ff91906106d2565b6104b2565b005b61020e6104d9565b60405161021b91906108ac565b60405180910390f35b61023e60048036038101906102399190610691565b6104df565b60405161024b91906108ac565b60405180910390f35b61026e6004803603810190610269919061074f565b61050d565b005b61027861051a565b60405161028591906108ac565b60405180910390f35b610296610523565b6040516102a3919061088a565b60405180910390f35b80600080828254019250508190555050565b6000600180549050905090565b60006002826040516102dd9190610844565b9081526020016040518091039020549050919050565b600081600054029050919050565b6001818154811061030e57fe5b906000526020600020016000915090508054600181600116156101000203166002900480601f0160208091040260200160405190810160405280929190818152602001828054600181600116156101000203166002900480156103b25780601f10610387576101008083540402835291602001916103b2565b820191906000526020600020905b81548152906001019060200180831161039557829003601f168201915b505050505081565b6001819080600181540180825580915050600190039060005260206000200160009091909190915090805190602001906103f5929190610583565b5050565b60606001828154811061040857fe5b906000526020600020018054600181600116156101000203166002900480601f0160208091040260200160405190810160405280929190818152602001828054600181600116156101000203166002900480156104a65780601f1061047b576101008083540402835291602001916104a6565b820191906000526020600020905b81548152906001019060200180831161048957829003601f168201915b50505050509050919050565b806002836040516104c39190610844565b9081526020016040518091039020819055505050565b60005481565b6002818051602081018201805184825260208301602085012081835280955050505050506000915090505481565b8082016000819055505050565b60008054905090565b6060600061052f6102be565b9050606060008090505b8281141561057a578161054b846103f9565b60405160200161055c92919061085b565b60405160208183030381529060405291508080600101915050610539565b50809250505090565b828054600181600116156101000203166002900490600052602060002090601f016020900481019282601f106105c457805160ff19168380011785556105f2565b828001600101855582156105f2579182015b828111156105f15782518255916020019190600101906105d6565b5b5090506105ff9190610603565b5090565b61062591905b80821115610621576000816000905550600101610609565b5090565b90565b600082601f83011261063957600080fd5b813561064c610647826108f4565b6108c7565b9150808252602083016020830185838301111561066857600080fd5b610673838284610951565b50505092915050565b60008135905061068b816109a4565b92915050565b6000602082840312156106a357600080fd5b600082013567ffffffffffffffff8111156106bd57600080fd5b6106c984828501610628565b91505092915050565b600080604083850312156106e557600080fd5b600083013567ffffffffffffffff8111156106ff57600080fd5b61070b85828601610628565b925050602061071c8582860161067c565b9150509250929050565b60006020828403121561073857600080fd5b60006107468482850161067c565b91505092915050565b6000806040838503121561076257600080fd5b60006107708582860161067c565b92505060206107818582860161067c565b9150509250929050565b600061079682610920565b6107a0818561092b565b93506107b0818560208601610960565b6107b981610993565b840191505092915050565b60006107cf82610920565b6107d9818561093c565b93506107e9818560208601610960565b80840191505092915050565b600061080260028361093c565b91507f2c200000000000000000000000000000000000000000000000000000000000006000830152600282019050919050565b61083e81610947565b82525050565b600061085082846107c4565b915081905092915050565b600061086782856107c4565b9150610872826107f5565b915061087e82846107c4565b91508190509392505050565b600060208201905081810360008301526108a4818461078b565b905092915050565b60006020820190506108c16000830184610835565b92915050565b6000604051905081810181811067ffffffffffffffff821117156108ea57600080fd5b8060405250919050565b600067ffffffffffffffff82111561090b57600080fd5b601f19601f8301169050602081019050919050565b600081519050919050565b600082825260208201905092915050565b600081905092915050565b6000819050919050565b82818337600083830152505050565b60005b8381101561097e578082015181840152602081019050610963565b8381111561098d576000848401525b50505050565b6000601f19601f8301169050919050565b6109ad81610947565b81146109b857600080fd5b5056fea264697066735822122092dd89140705e77535d6667901d2d85717800a15b25c4cacb02de51367c338e564736f6c63430006070033",
					"opcodes": "PUSH1 0x80 PUSH1 0x40 MSTORE PUSH1 0x0 DUP1 SSTORE CALLVALUE DUP1 ISZERO PUSH2 0x14 JUMPI PUSH1 0x0 DUP1 REVERT JUMPDEST POP PUSH2 0x9F1 DUP1 PUSH2 0x24 PUSH1 0x0 CODECOPY PUSH1 0x0 RETURN INVALID PUSH1 0x80 PUSH1 0x40 MSTORE CALLVALUE DUP1 ISZERO PUSH2 0x10 JUMPI PUSH1 0x0 DUP1 REVERT JUMPDEST POP PUSH1 0x4 CALLDATASIZE LT PUSH2 0xCF JUMPI PUSH1 0x0 CALLDATALOAD PUSH1 0xE0 SHR DUP1 PUSH4 0x6B8FF574 GT PUSH2 0x8C JUMPI DUP1 PUSH4 0x96FA3A81 GT PUSH2 0x66 JUMPI DUP1 PUSH4 0x96FA3A81 EQ PUSH2 0x224 JUMPI DUP1 PUSH4 0xEF9FC50B EQ PUSH2 0x254 JUMPI DUP1 PUSH4 0xF2C9ECD8 EQ PUSH2 0x270 JUMPI DUP1 PUSH4 0xFB825E5F EQ PUSH2 0x28E JUMPI PUSH2 0xCF JUMP JUMPDEST DUP1 PUSH4 0x6B8FF574 EQ PUSH2 0x1BA JUMPI DUP1 PUSH4 0x7BA1EAB3 EQ PUSH2 0x1EA JUMPI DUP1 PUSH4 0x8381F58A EQ PUSH2 0x206 JUMPI PUSH2 0xCF JUMP JUMPDEST DUP1 PUSH4 0x7391DD6 EQ PUSH2 0xD4 JUMPI DUP1 PUSH4 0x8CCBC88 EQ PUSH2 0xF0 JUMPI DUP1 PUSH4 0x14B3EE68 EQ PUSH2 0x10E JUMPI DUP1 PUSH4 0x16039540 EQ PUSH2 0x13E JUMPI DUP1 PUSH4 0x4622AB03 EQ PUSH2 0x16E JUMPI DUP1 PUSH4 0x4F3D057A EQ PUSH2 0x19E JUMPI JUMPDEST PUSH1 0x0 DUP1 REVERT JUMPDEST PUSH2 0xEE PUSH1 0x4 DUP1 CALLDATASIZE SUB DUP2 ADD SWAP1 PUSH2 0xE9 SWAP2 SWAP1 PUSH2 0x726 JUMP JUMPDEST PUSH2 0x2AC JUMP JUMPDEST STOP JUMPDEST PUSH2 0xF8 PUSH2 0x2BE JUMP JUMPDEST PUSH1 0x40 MLOAD PUSH2 0x105 SWAP2 SWAP1 PUSH2 0x8AC JUMP JUMPDEST PUSH1 0x40 MLOAD DUP1 SWAP2 SUB SWAP1 RETURN JUMPDEST PUSH2 0x128 PUSH1 0x4 DUP1 CALLDATASIZE SUB DUP2 ADD SWAP1 PUSH2 0x123 SWAP2 SWAP1 PUSH2 0x691 JUMP JUMPDEST PUSH2 0x2CB JUMP JUMPDEST PUSH1 0x40 MLOAD PUSH2 0x135 SWAP2 SWAP1 PUSH2 0x8AC JUMP JUMPDEST PUSH1 0x40 MLOAD DUP1 SWAP2 SUB SWAP1 RETURN JUMPDEST PUSH2 0x158 PUSH1 0x4 DUP1 CALLDATASIZE SUB DUP2 ADD SWAP1 PUSH2 0x153 SWAP2 SWAP1 PUSH2 0x726 JUMP JUMPDEST PUSH2 0x2F3 JUMP JUMPDEST PUSH1 0x40 MLOAD PUSH2 0x165 SWAP2 SWAP1 PUSH2 0x8AC JUMP JUMPDEST PUSH1 0x40 MLOAD DUP1 SWAP2 SUB SWAP1 RETURN JUMPDEST PUSH2 0x188 PUSH1 0x4 DUP1 CALLDATASIZE SUB DUP2 ADD SWAP1 PUSH2 0x183 SWAP2 SWAP1 PUSH2 0x726 JUMP JUMPDEST PUSH2 0x301 JUMP JUMPDEST PUSH1 0x40 MLOAD PUSH2 0x195 SWAP2 SWAP1 PUSH2 0x88A JUMP JUMPDEST PUSH1 0x40 MLOAD DUP1 SWAP2 SUB SWAP1 RETURN JUMPDEST PUSH2 0x1B8 PUSH1 0x4 DUP1 CALLDATASIZE SUB DUP2 ADD SWAP1 PUSH2 0x1B3 SWAP2 SWAP1 PUSH2 0x691 JUMP JUMPDEST PUSH2 0x3BA JUMP JUMPDEST STOP JUMPDEST PUSH2 0x1D4 PUSH1 0x4 DUP1 CALLDATASIZE SUB DUP2 ADD SWAP1 PUSH2 0x1CF SWAP2 SWAP1 PUSH2 0x726 JUMP JUMPDEST PUSH2 0x3F9 JUMP JUMPDEST PUSH1 0x40 MLOAD PUSH2 0x1E1 SWAP2 SWAP1 PUSH2 0x88A JUMP JUMPDEST PUSH1 0x40 MLOAD DUP1 SWAP2 SUB SWAP1 RETURN JUMPDEST PUSH2 0x204 PUSH1 0x4 DUP1 CALLDATASIZE SUB DUP2 ADD SWAP1 PUSH2 0x1FF SWAP2 SWAP1 PUSH2 0x6D2 JUMP JUMPDEST PUSH2 0x4B2 JUMP JUMPDEST STOP JUMPDEST PUSH2 0x20E PUSH2 0x4D9 JUMP JUMPDEST PUSH1 0x40 MLOAD PUSH2 0x21B SWAP2 SWAP1 PUSH2 0x8AC JUMP JUMPDEST PUSH1 0x40 MLOAD DUP1 SWAP2 SUB SWAP1 RETURN JUMPDEST PUSH2 0x23E PUSH1 0x4 DUP1 CALLDATASIZE SUB DUP2 ADD SWAP1 PUSH2 0x239 SWAP2 SWAP1 PUSH2 0x691 JUMP JUMPDEST PUSH2 0x4DF JUMP JUMPDEST PUSH1 0x40 MLOAD PUSH2 0x24B SWAP2 SWAP1 PUSH2 0x8AC JUMP JUMPDEST PUSH1 0x40 MLOAD DUP1 SWAP2 SUB SWAP1 RETURN JUMPDEST PUSH2 0x26E PUSH1 0x4 DUP1 CALLDATASIZE SUB DUP2 ADD SWAP1 PUSH2 0x269 SWAP2 SWAP1 PUSH2 0x74F JUMP JUMPDEST PUSH2 0x50D JUMP JUMPDEST STOP JUMPDEST PUSH2 0x278 PUSH2 0x51A JUMP JUMPDEST PUSH1 0x40 MLOAD PUSH2 0x285 SWAP2 SWAP1 PUSH2 0x8AC JUMP JUMPDEST PUSH1 0x40 MLOAD DUP1 SWAP2 SUB SWAP1 RETURN JUMPDEST PUSH2 0x296 PUSH2 0x523 JUMP JUMPDEST PUSH1 0x40 MLOAD PUSH2 0x2A3 SWAP2 SWAP1 PUSH2 0x88A JUMP JUMPDEST PUSH1 0x40 MLOAD DUP1 SWAP2 SUB SWAP1 RETURN JUMPDEST DUP1 PUSH1 0x0 DUP1 DUP3 DUP3 SLOAD ADD SWAP3 POP POP DUP2 SWAP1 SSTORE POP POP JUMP JUMPDEST PUSH1 0x0 PUSH1 0x1 DUP1 SLOAD SWAP1 POP SWAP1 POP SWAP1 JUMP JUMPDEST PUSH1 0x0 PUSH1 0x2 DUP3 PUSH1 0x40 MLOAD PUSH2 0x2DD SWAP2 SWAP1 PUSH2 0x844 JUMP JUMPDEST SWAP1 DUP2 MSTORE PUSH1 0x20 ADD PUSH1 0x40 MLOAD DUP1 SWAP2 SUB SWAP1 KECCAK256 SLOAD SWAP1 POP SWAP2 SWAP1 POP JUMP JUMPDEST PUSH1 0x0 DUP2 PUSH1 0x0 SLOAD MUL SWAP1 POP SWAP2 SWAP1 POP JUMP JUMPDEST PUSH1 0x1 DUP2 DUP2 SLOAD DUP2 LT PUSH2 0x30E JUMPI INVALID JUMPDEST SWAP1 PUSH1 0x0 MSTORE PUSH1 0x20 PUSH1 0x0 KECCAK256 ADD PUSH1 0x0 SWAP2 POP SWAP1 POP DUP1 SLOAD PUSH1 0x1 DUP2 PUSH1 0x1 AND ISZERO PUSH2 0x100 MUL SUB AND PUSH1 0x2 SWAP1 DIV DUP1 PUSH1 0x1F ADD PUSH1 0x20 DUP1 SWAP2 DIV MUL PUSH1 0x20 ADD PUSH1 0x40 MLOAD SWAP1 DUP2 ADD PUSH1 0x40 MSTORE DUP1 SWAP3 SWAP2 SWAP1 DUP2 DUP2 MSTORE PUSH1 0x20 ADD DUP3 DUP1 SLOAD PUSH1 0x1 DUP2 PUSH1 0x1 AND ISZERO PUSH2 0x100 MUL SUB AND PUSH1 0x2 SWAP1 DIV DUP1 ISZERO PUSH2 0x3B2 JUMPI DUP1 PUSH1 0x1F LT PUSH2 0x387 JUMPI PUSH2 0x100 DUP1 DUP4 SLOAD DIV MUL DUP4 MSTORE SWAP2 PUSH1 0x20 ADD SWAP2 PUSH2 0x3B2 JUMP JUMPDEST DUP3 ADD SWAP2 SWAP1 PUSH1 0x0 MSTORE PUSH1 0x20 PUSH1 0x0 KECCAK256 SWAP1 JUMPDEST DUP2 SLOAD DUP2 MSTORE SWAP1 PUSH1 0x1 ADD SWAP1 PUSH1 0x20 ADD DUP1 DUP4 GT PUSH2 0x395 JUMPI DUP3 SWAP1 SUB PUSH1 0x1F AND DUP3 ADD SWAP2 JUMPDEST POP POP POP POP POP DUP2 JUMP JUMPDEST PUSH1 0x1 DUP2 SWAP1 DUP1 PUSH1 0x1 DUP2 SLOAD ADD DUP1 DUP3 SSTORE DUP1 SWAP2 POP POP PUSH1 0x1 SWAP1 SUB SWAP1 PUSH1 0x0 MSTORE PUSH1 0x20 PUSH1 0x0 KECCAK256 ADD PUSH1 0x0 SWAP1 SWAP2 SWAP1 SWAP2 SWAP1 SWAP2 POP SWAP1 DUP1 MLOAD SWAP1 PUSH1 0x20 ADD SWAP1 PUSH2 0x3F5 SWAP3 SWAP2 SWAP1 PUSH2 0x583 JUMP JUMPDEST POP POP JUMP JUMPDEST PUSH1 0x60 PUSH1 0x1 DUP3 DUP2 SLOAD DUP2 LT PUSH2 0x408 JUMPI INVALID JUMPDEST SWAP1 PUSH1 0x0 MSTORE PUSH1 0x20 PUSH1 0x0 KECCAK256 ADD DUP1 SLOAD PUSH1 0x1 DUP2 PUSH1 0x1 AND ISZERO PUSH2 0x100 MUL SUB AND PUSH1 0x2 SWAP1 DIV DUP1 PUSH1 0x1F ADD PUSH1 0x20 DUP1 SWAP2 DIV MUL PUSH1 0x20 ADD PUSH1 0x40 MLOAD SWAP1 DUP2 ADD PUSH1 0x40 MSTORE DUP1 SWAP3 SWAP2 SWAP1 DUP2 DUP2 MSTORE PUSH1 0x20 ADD DUP3 DUP1 SLOAD PUSH1 0x1 DUP2 PUSH1 0x1 AND ISZERO PUSH2 0x100 MUL SUB AND PUSH1 0x2 SWAP1 DIV DUP1 ISZERO PUSH2 0x4A6 JUMPI DUP1 PUSH1 0x1F LT PUSH2 0x47B JUMPI PUSH2 0x100 DUP1 DUP4 SLOAD DIV MUL DUP4 MSTORE SWAP2 PUSH1 0x20 ADD SWAP2 PUSH2 0x4A6 JUMP JUMPDEST DUP3 ADD SWAP2 SWAP1 PUSH1 0x0 MSTORE PUSH1 0x20 PUSH1 0x0 KECCAK256 SWAP1 JUMPDEST DUP2 SLOAD DUP2 MSTORE SWAP1 PUSH1 0x1 ADD SWAP1 PUSH1 0x20 ADD DUP1 DUP4 GT PUSH2 0x489 JUMPI DUP3 SWAP1 SUB PUSH1 0x1F AND DUP3 ADD SWAP2 JUMPDEST POP POP POP POP POP SWAP1 POP SWAP2 SWAP1 POP JUMP JUMPDEST DUP1 PUSH1 0x2 DUP4 PUSH1 0x40 MLOAD PUSH2 0x4C3 SWAP2 SWAP1 PUSH2 0x844 JUMP JUMPDEST SWAP1 DUP2 MSTORE PUSH1 0x20 ADD PUSH1 0x40 MLOAD DUP1 SWAP2 SUB SWAP1 KECCAK256 DUP2 SWAP1 SSTORE POP POP POP JUMP JUMPDEST PUSH1 0x0 SLOAD DUP2 JUMP JUMPDEST PUSH1 0x2 DUP2 DUP1 MLOAD PUSH1 0x20 DUP2 ADD DUP3 ADD DUP1 MLOAD DUP5 DUP3 MSTORE PUSH1 0x20 DUP4 ADD PUSH1 0x20 DUP6 ADD KECCAK256 DUP2 DUP4 MSTORE DUP1 SWAP6 POP POP POP POP POP POP PUSH1 0x0 SWAP2 POP SWAP1 POP SLOAD DUP2 JUMP JUMPDEST DUP1 DUP3 ADD PUSH1 0x0 DUP2 SWAP1 SSTORE POP POP POP JUMP JUMPDEST PUSH1 0x0 DUP1 SLOAD SWAP1 POP SWAP1 JUMP JUMPDEST PUSH1 0x60 PUSH1 0x0 PUSH2 0x52F PUSH2 0x2BE JUMP JUMPDEST SWAP1 POP PUSH1 0x60 PUSH1 0x0 DUP1 SWAP1 POP JUMPDEST DUP3 DUP2 EQ ISZERO PUSH2 0x57A JUMPI DUP2 PUSH2 0x54B DUP5 PUSH2 0x3F9 JUMP JUMPDEST PUSH1 0x40 MLOAD PUSH1 0x20 ADD PUSH2 0x55C SWAP3 SWAP2 SWAP1 PUSH2 0x85B JUMP JUMPDEST PUSH1 0x40 MLOAD PUSH1 0x20 DUP2 DUP4 SUB SUB DUP2 MSTORE SWAP1 PUSH1 0x40 MSTORE SWAP2 POP DUP1 DUP1 PUSH1 0x1 ADD SWAP2 POP POP PUSH2 0x539 JUMP JUMPDEST POP DUP1 SWAP3 POP POP POP SWAP1 JUMP JUMPDEST DUP3 DUP1 SLOAD PUSH1 0x1 DUP2 PUSH1 0x1 AND ISZERO PUSH2 0x100 MUL SUB AND PUSH1 0x2 SWAP1 DIV SWAP1 PUSH1 0x0 MSTORE PUSH1 0x20 PUSH1 0x0 KECCAK256 SWAP1 PUSH1 0x1F ADD PUSH1 0x20 SWAP1 DIV DUP2 ADD SWAP3 DUP3 PUSH1 0x1F LT PUSH2 0x5C4 JUMPI DUP1 MLOAD PUSH1 0xFF NOT AND DUP4 DUP1 ADD OR DUP6 SSTORE PUSH2 0x5F2 JUMP JUMPDEST DUP3 DUP1 ADD PUSH1 0x1 ADD DUP6 SSTORE DUP3 ISZERO PUSH2 0x5F2 JUMPI SWAP2 DUP3 ADD JUMPDEST DUP3 DUP2 GT ISZERO PUSH2 0x5F1 JUMPI DUP3 MLOAD DUP3 SSTORE SWAP2 PUSH1 0x20 ADD SWAP2 SWAP1 PUSH1 0x1 ADD SWAP1 PUSH2 0x5D6 JUMP JUMPDEST JUMPDEST POP SWAP1 POP PUSH2 0x5FF SWAP2 SWAP1 PUSH2 0x603 JUMP JUMPDEST POP SWAP1 JUMP JUMPDEST PUSH2 0x625 SWAP2 SWAP1 JUMPDEST DUP1 DUP3 GT ISZERO PUSH2 0x621 JUMPI PUSH1 0x0 DUP2 PUSH1 0x0 SWAP1 SSTORE POP PUSH1 0x1 ADD PUSH2 0x609 JUMP JUMPDEST POP SWAP1 JUMP JUMPDEST SWAP1 JUMP JUMPDEST PUSH1 0x0 DUP3 PUSH1 0x1F DUP4 ADD SLT PUSH2 0x639 JUMPI PUSH1 0x0 DUP1 REVERT JUMPDEST DUP2 CALLDATALOAD PUSH2 0x64C PUSH2 0x647 DUP3 PUSH2 0x8F4 JUMP JUMPDEST PUSH2 0x8C7 JUMP JUMPDEST SWAP2 POP DUP1 DUP3 MSTORE PUSH1 0x20 DUP4 ADD PUSH1 0x20 DUP4 ADD DUP6 DUP4 DUP4 ADD GT ISZERO PUSH2 0x668 JUMPI PUSH1 0x0 DUP1 REVERT JUMPDEST PUSH2 0x673 DUP4 DUP3 DUP5 PUSH2 0x951 JUMP JUMPDEST POP POP POP SWAP3 SWAP2 POP POP JUMP JUMPDEST PUSH1 0x0 DUP2 CALLDATALOAD SWAP1 POP PUSH2 0x68B DUP2 PUSH2 0x9A4 JUMP JUMPDEST SWAP3 SWAP2 POP POP JUMP JUMPDEST PUSH1 0x0 PUSH1 0x20 DUP3 DUP5 SUB SLT ISZERO PUSH2 0x6A3 JUMPI PUSH1 0x0 DUP1 REVERT JUMPDEST PUSH1 0x0 DUP3 ADD CALLDATALOAD PUSH8 0xFFFFFFFFFFFFFFFF DUP2 GT ISZERO PUSH2 0x6BD JUMPI PUSH1 0x0 DUP1 REVERT JUMPDEST PUSH2 0x6C9 DUP5 DUP3 DUP6 ADD PUSH2 0x628 JUMP JUMPDEST SWAP2 POP POP SWAP3 SWAP2 POP POP JUMP JUMPDEST PUSH1 0x0 DUP1 PUSH1 0x40 DUP4 DUP6 SUB SLT ISZERO PUSH2 0x6E5 JUMPI PUSH1 0x0 DUP1 REVERT JUMPDEST PUSH1 0x0 DUP4 ADD CALLDATALOAD PUSH8 0xFFFFFFFFFFFFFFFF DUP2 GT ISZERO PUSH2 0x6FF JUMPI PUSH1 0x0 DUP1 REVERT JUMPDEST PUSH2 0x70B DUP6 DUP3 DUP7 ADD PUSH2 0x628 JUMP JUMPDEST SWAP3 POP POP PUSH1 0x20 PUSH2 0x71C DUP6 DUP3 DUP7 ADD PUSH2 0x67C JUMP JUMPDEST SWAP2 POP POP SWAP3 POP SWAP3 SWAP1 POP JUMP JUMPDEST PUSH1 0x0 PUSH1 0x20 DUP3 DUP5 SUB SLT ISZERO PUSH2 0x738 JUMPI PUSH1 0x0 DUP1 REVERT JUMPDEST PUSH1 0x0 PUSH2 0x746 DUP5 DUP3 DUP6 ADD PUSH2 0x67C JUMP JUMPDEST SWAP2 POP POP SWAP3 SWAP2 POP POP JUMP JUMPDEST PUSH1 0x0 DUP1 PUSH1 0x40 DUP4 DUP6 SUB SLT ISZERO PUSH2 0x762 JUMPI PUSH1 0x0 DUP1 REVERT JUMPDEST PUSH1 0x0 PUSH2 0x770 DUP6 DUP3 DUP7 ADD PUSH2 0x67C JUMP JUMPDEST SWAP3 POP POP PUSH1 0x20 PUSH2 0x781 DUP6 DUP3 DUP7 ADD PUSH2 0x67C JUMP JUMPDEST SWAP2 POP POP SWAP3 POP SWAP3 SWAP1 POP JUMP JUMPDEST PUSH1 0x0 PUSH2 0x796 DUP3 PUSH2 0x920 JUMP JUMPDEST PUSH2 0x7A0 DUP2 DUP6 PUSH2 0x92B JUMP JUMPDEST SWAP4 POP PUSH2 0x7B0 DUP2 DUP6 PUSH1 0x20 DUP7 ADD PUSH2 0x960 JUMP JUMPDEST PUSH2 0x7B9 DUP2 PUSH2 0x993 JUMP JUMPDEST DUP5 ADD SWAP2 POP POP SWAP3 SWAP2 POP POP JUMP JUMPDEST PUSH1 0x0 PUSH2 0x7CF DUP3 PUSH2 0x920 JUMP JUMPDEST PUSH2 0x7D9 DUP2 DUP6 PUSH2 0x93C JUMP JUMPDEST SWAP4 POP PUSH2 0x7E9 DUP2 DUP6 PUSH1 0x20 DUP7 ADD PUSH2 0x960 JUMP JUMPDEST DUP1 DUP5 ADD SWAP2 POP POP SWAP3 SWAP2 POP POP JUMP JUMPDEST PUSH1 0x0 PUSH2 0x802 PUSH1 0x2 DUP4 PUSH2 0x93C JUMP JUMPDEST SWAP2 POP PUSH32 0x2C20000000000000000000000000000000000000000000000000000000000000 PUSH1 0x0 DUP4 ADD MSTORE PUSH1 0x2 DUP3 ADD SWAP1 POP SWAP2 SWAP1 POP JUMP JUMPDEST PUSH2 0x83E DUP2 PUSH2 0x947 JUMP JUMPDEST DUP3 MSTORE POP POP JUMP JUMPDEST PUSH1 0x0 PUSH2 0x850 DUP3 DUP5 PUSH2 0x7C4 JUMP JUMPDEST SWAP2 POP DUP2 SWAP1 POP SWAP3 SWAP2 POP POP JUMP JUMPDEST PUSH1 0x0 PUSH2 0x867 DUP3 DUP6 PUSH2 0x7C4 JUMP JUMPDEST SWAP2 POP PUSH2 0x872 DUP3 PUSH2 0x7F5 JUMP JUMPDEST SWAP2 POP PUSH2 0x87E DUP3 DUP5 PUSH2 0x7C4 JUMP JUMPDEST SWAP2 POP DUP2 SWAP1 POP SWAP4 SWAP3 POP POP POP JUMP JUMPDEST PUSH1 0x0 PUSH1 0x20 DUP3 ADD SWAP1 POP DUP2 DUP2 SUB PUSH1 0x0 DUP4 ADD MSTORE PUSH2 0x8A4 DUP2 DUP5 PUSH2 0x78B JUMP JUMPDEST SWAP1 POP SWAP3 SWAP2 POP POP JUMP JUMPDEST PUSH1 0x0 PUSH1 0x20 DUP3 ADD SWAP1 POP PUSH2 0x8C1 PUSH1 0x0 DUP4 ADD DUP5 PUSH2 0x835 JUMP JUMPDEST SWAP3 SWAP2 POP POP JUMP JUMPDEST PUSH1 0x0 PUSH1 0x40 MLOAD SWAP1 POP DUP2 DUP2 ADD DUP2 DUP2 LT PUSH8 0xFFFFFFFFFFFFFFFF DUP3 GT OR ISZERO PUSH2 0x8EA JUMPI PUSH1 0x0 DUP1 REVERT JUMPDEST DUP1 PUSH1 0x40 MSTORE POP SWAP2 SWAP1 POP JUMP JUMPDEST PUSH1 0x0 PUSH8 0xFFFFFFFFFFFFFFFF DUP3 GT ISZERO PUSH2 0x90B JUMPI PUSH1 0x0 DUP1 REVERT JUMPDEST PUSH1 0x1F NOT PUSH1 0x1F DUP4 ADD AND SWAP1 POP PUSH1 0x20 DUP2 ADD SWAP1 POP SWAP2 SWAP1 POP JUMP JUMPDEST PUSH1 0x0 DUP2 MLOAD SWAP1 POP SWAP2 SWAP1 POP JUMP JUMPDEST PUSH1 0x0 DUP3 DUP3 MSTORE PUSH1 0x20 DUP3 ADD SWAP1 POP SWAP3 SWAP2 POP POP JUMP JUMPDEST PUSH1 0x0 DUP2 SWAP1 POP SWAP3 SWAP2 POP POP JUMP JUMPDEST PUSH1 0x0 DUP2 SWAP1 POP SWAP2 SWAP1 POP JUMP JUMPDEST DUP3 DUP2 DUP4 CALLDATACOPY PUSH1 0x0 DUP4 DUP4 ADD MSTORE POP POP POP JUMP JUMPDEST PUSH1 0x0 JUMPDEST DUP4 DUP2 LT ISZERO PUSH2 0x97E JUMPI DUP1 DUP3 ADD MLOAD DUP2 DUP5 ADD MSTORE PUSH1 0x20 DUP2 ADD SWAP1 POP PUSH2 0x963 JUMP JUMPDEST DUP4 DUP2 GT ISZERO PUSH2 0x98D JUMPI PUSH1 0x0 DUP5 DUP5 ADD MSTORE JUMPDEST POP POP POP POP JUMP JUMPDEST PUSH1 0x0 PUSH1 0x1F NOT PUSH1 0x1F DUP4 ADD AND SWAP1 POP SWAP2 SWAP1 POP JUMP JUMPDEST PUSH2 0x9AD DUP2 PUSH2 0x947 JUMP JUMPDEST DUP2 EQ PUSH2 0x9B8 JUMPI PUSH1 0x0 DUP1 REVERT JUMPDEST POP JUMP INVALID LOG2 PUSH5 0x6970667358 0x22 SLT KECCAK256 SWAP3 0xDD DUP10 EQ SMOD SDIV 0xE7 PUSH22 0x35D6667901D2D85717800A15B25C4CACB02DE51367C3 CODESIZE 0xE5 PUSH5 0x736F6C6343 STOP MOD SMOD STOP CALLER "
				},
				"gasEstimates": {
					"creation": {
						"codeDepositCost": "509000",
						"executionCost": "5549",
						"totalCost": "514549"
					},
					"external": {
						"addMobileNumber(string,uint256)": "infinite",
						"addNumbers(uint256,uint256)": "infinite",
						"changeNumber(uint256)": "21240",
						"getAllNames()": "infinite",
						"getAmmountNames()": "1168",
						"getMobileNumber(string)": "infinite",
						"getName(uint256)": "infinite",
						"getNumber()": "1203",
						"getNumberMultiplied(uint256)": "infinite",
						"mobileNum(string)": "infinite",
						"names(uint256)": "infinite",
						"number()": "1196",
						"push(string)": "infinite"
					}
				},
				"methodIdentifiers": {
					"addMobileNumber(string,uint256)": "7ba1eab3",
					"addNumbers(uint256,uint256)": "ef9fc50b",
					"changeNumber(uint256)": "07391dd6",
					"getAllNames()": "fb825e5f",
					"getAmmountNames()": "08ccbc88",
					"getMobileNumber(string)": "14b3ee68",
					"getName(uint256)": "6b8ff574",
					"getNumber()": "f2c9ecd8",
					"getNumberMultiplied(uint256)": "16039540",
					"mobileNum(string)": "96fa3a81",
					"names(uint256)": "4622ab03",
					"number()": "8381f58a",
					"push(string)": "4f3d057a"
				}
			},
			"storageLayout": {
				"storage": [
					{
						"astId": 5,
						"contract": "contracts/FirstContract.sol:MyFirstContract",
						"label": "number",
						"offset": 0,
						"slot": "0",
						"type": "t_uint256"
					},
					{
						"astId": 8,
						"contract": "contracts/FirstContract.sol:MyFirstContract",
						"label": "names",
						"offset": 0,
						"slot": "1",
						"type": "t_array(t_string_storage)dyn_storage"
					},
					{
						"astId": 12,
						"contract": "contracts/FirstContract.sol:MyFirstContract",
						"label": "mobileNum",
						"offset": 0,
						"slot": "2",
						"type": "t_mapping(t_string_memory_ptr,t_uint256)"
					}
				],
				"types": {
					"t_array(t_string_storage)dyn_storage": {
						"base": "t_string_storage",
						"encoding": "dynamic_array",
						"label": "string[]",
						"numberOfBytes": "32"
					},
					"t_mapping(t_string_memory_ptr,t_uint256)": {
						"encoding": "mapping",
						"key": "t_string_memory_ptr",
						"label": "mapping(string => uint256)",
						"numberOfBytes": "32",
						"value": "t_uint256"
					},
					"t_string_memory_ptr": {
						"encoding": "bytes",
						"label": "string",
						"numberOfBytes": "32"
					},
					"t_string_storage": {
						"encoding": "bytes",
						"label": "string",
						"numberOfBytes": "32"
					},
					"t_uint256": {
						"encoding": "inplace",
						"label": "uint256",
						"numberOfBytes": "32"
					}
				}
			},
			"userdoc": {
				"methods": {}
			}
		}
	}
}